:1000000080210020250100002101000021010000C5
:1000100000000000000000000000000000000000E0
:1000200000000000000000000000000021010000AE
:10003000000000000000000021010000210100007C
:100040002101000021010000210100002101000028
:100050002101000021010000210100002101000018
:100060002101000021010000210100002101000008
:1000700021010000210100002101000021010000F8
:1000800021010000210100002101000021010000E8
:10009000210100000000000000000000210100001C
:1000A00021010000210100002101000021010000C8
:1000B0000000000010B5064C2378002B07D1054B3B
:1000C000002B02D0044800E000BF0123237010BDC4
:1000D000640000200000000014390000084B10B537
:1000E000002B03D00749084800E000BF0748036819
:1000F000002B00D110BD064B002BFBD09847F9E731
:1001000000000000680000201439000014390000CD
:100110000000000010B5014B984710BD31030000EE
:10012000FEE70000F8B5234A234B9A4209D0224B40
:10013000204A03E011681960043304321F498B42DE
:10014000F8D31F4B02E000221A6004331D4A934289
:10015000F9D31D4AFF211D4B8B439360FD3990233A
:100160005B001B4AD1501B4AD3780325AB430224C2
:100170002343D370D3780C27BB4308263343D37073
:10018000154B987B30229043202210439873997B23
:10019000B943314399739A7BAA4322439A730F4A16
:1001A000516880230B4353600D4B98470D4B984784
:1001B000FEE7C04614390000000000206400002063
:1001C000640000208001002000ED00E0000000003D
:1001D00000700041005000410048004100400041D3
:1001E00009290000AD10000070B5134B5020195CB8
:1001F000042291431954195C0125A9430124214388
:10020000C9B219541838195C0F26B143022631437C
:10021000C9B2195451215E5C96435E545A5CAA439C
:100220002243D2B25A541A5C42390A4020210A436E
:10023000D2B21A5470BDC04600440041054A136A48
:1002400008210B431362044B044A5A80044A5A8023
:100250007047C04600040040000C004015400000FC
:100260001343000010B5044B984704490448054B5C
:100270009847054B984710BD3D020000000C004216
:100280005C01002019040000E901000030B50F4BAB
:10029000C222995C0125A94301242143C9B2995482
:1002A000B120195CB33A914303221143C9B21954E6
:1002B000C3215A5CAA432243D2B25A541A5CB439BD
:1002C0000A4030210A43D2B21A5430BD00440041E2
:1002D000044A136A80210B431362034A034B5A807A
:1002E0007047C0460004004019400000000C004068
:1002F00010B5054B9847002204490548054B98471F
:10030000054B984710BDC046D1020000001C0042BA
:1003100050010020D10500008D02000010B50248F8
:10032000024B984710BDC04610E000E07D0300007E
:1003300010B50C4B9847C023DB0508229A619A60E0
:10034000094B0A4A9A62C02212069A6243215A5CF9
:10035000012082435A54064B9847064B9847064B58
:10036000984710BDB106000000440041080000405D
:1003700065020000F10200001D03000010B5024BF1
:100380001860024B984710BD8000002061100000EB
:1003900010B5044B1C68044B984701002000034B28
:1003A000984710BD80000020A50600006D100000D9
:1003B00010B584B01438848B01AB1C8014000292F9
:1003C000064A5A8003911900054B9847002802D12C
:1003D000200004B010BD0400FAE7C0460080FFFF13
:1003E000310D000010B584B01438848B01AB1C8033
:1003F00014000292064A5A8003911900054B98474F
:10040000002802D1200004B010BD0400FAE7C04665
:100410000180FFFF310D000070B504000D00431E88
:100420009841C0B25E220749074B98472900200037
:10043000064B9847002803D1054BA361054B636128
:1004400070BDC0460432000079060000810C000037
:10045000E5030000B103000010B5014B984710BD43
:10046000B10C00008905890D8023DB001A400A4386
:10047000828310007047143008600020704700002D
:1004800070B504000D00160000280ED000290AD017
:10049000012034220649074B98472368320029007F
:1004A0002000984770BD0020F3E70020F1E7C04628
:1004B000203200007906000070B504000D0016001F
:1004C00000280ED000290AD001203D220649074B02
:1004D00098476368320029002000984770BD0020CB
:1004E000F3E70020F1E7C046203200007906000063
:1004F000F8B505000E001700002823D0002923D0EE
:10050000002A23D10020F1221149124B98472C00D8
:1005100008342000104B98470028F8D00025715D62
:1005200020000E4B984720000B4B98470028FAD02C
:100530000135BD42F3D32000094B98470028FAD07B
:100540002800F8BD0020DEE70020DCE70120DAE724
:1005500034320000790600005F0C00004F0C0000F0
:10056000690C0000F8B5CE46474680B5051E8846A2
:1005700091461FD000291FD0002A1FD100208622BB
:1005800052000F490F4B984700262C0008342000DA
:100590000D4B98470028F8D043469F1920000B4B7D
:1005A0009847387001364E45EFD330000CBC90466A
:1005B0009946F8BD0020E2E70020E0E70120DEE7F1
:1005C0003432000079060000750C0000570C000062
:1005D00070B504000D00002814D0002910D00120AF
:1005E00034220949094B9847200008302900084B5C
:1005F0009847002803D1074B6360074B236070BD09
:100600000020EDE70020EBE734320000790600001F
:10061000110C000065050000F104000010B5040095
:10062000431E9841C0B253220449054B984720000D
:100630000830044B9847002010BDC04634320000FB
:10064000790600003D0C000070B504000D00002884
:100650000BD0002907D0012069220549054B984796
:100660002C60002070BD0020F6E70020F4E7C046B3
:100670003432000079060000002800D100BE704727
:100680000300064A1268002A04D0044A1068C318FE
:10069000136070470249014A1160F6E784000020A8
:1006A0008021002003011B1A1A0164205043704767
:1006B00010B5074B5A685A60064B9847064B984747
:1006C0000220064CA047064B9847FD20A04710BDCE
:1006D0000040004125070000AD0F0000E5060000C6
:1006E000C50F0000C30709D50B4B802252009A604A
:1006F0000A4A5A60084B5B78DB09FBD1830709D5AE
:10070000054B0222FF329A60054A5A60024B5B7821
:10071000DB09FBD17047C046000C00400007010018
:1007200001030100074B1A7A01210A43D2B21A725F
:100730005A7AD2B25A729A7AD2B29A72DA7AD2B219
:10074000DA72704700040040024B9C466044800A05
:10075000C0B2704700F8FFBD10B50B4B98470200C0
:100760000020002806D0094A09490020094B984773
:10077000002010BD83001B189900074BCB5C9A42E8
:10078000F7D00130C0B2ECE7490700003A020000A0
:10079000A0320000790600005032000070B504005D
:1007A000384B9847E369DB071DD483001B189A0078
:1007B000354B9B185A681C231A40E3699B07FCD1F0
:1007C00023689B0709D5236802218B432360E369D3
:1007D0009B07FCD1E3699B07FCD4012313432360EF
:1007E000E3699B07FCD1E369DB07FCD483001B189A
:1007F0009A00254B9B185B682360E3699B07FCD13B
:1008000083001B189A00204B9B189B686360E36968
:100810005B07FCD183001B189A001B4B9B185B687D
:100820009A040BD4C022D201134207D183001B18B3
:100830009A00154B9B189B89A38115E083001B1818
:100840009A00114989188A89A389D204D20C5B0BBA
:100850005B031343A3818B7B07221A40A3895203B6
:10086000DB04DB0C1343A381074A83001D18A90096
:100870000D005118C97BA1735219127C3023E25428
:10088000002070BD590700005032000010B50D4B1C
:1008900098470023002B08D0E62292000A49002046
:1008A0000A4B98470120404210BD5A00D218D1008F
:1008B000074A5218127D904202D00133DBB2E9E7B9
:1008C00058B2F1E749070000A032000079060000A5
:1008D0005032000070B505000C0008002D4B984701
:1008E000C0B2E369DB071DD443001B18DA002A4BB2
:1008F0009B189A691C231A40E3699B07FCD1236863
:100900009B0709D5236802218B432360E3699B077A
:10091000FCD1E3699B07FCD4012313432360E36903
:100920009B07FCD1E369DB07FCD443001B18DA000A
:10093000194B9B189B692360E3699B07FCD143001B
:100940001B18DA00144B9B18DB696360E3695B07D3
:10095000FCD442001218D1000F4B5B181A6AE260F7
:10096000DA7E03231A40AA81023B93429B415B42F9
:10097000626A0A490A409B0313436362E3695B07A7
:10098000FCD443001818C200034B9B18DB8CEB818E
:10099000002070BD8D08000050320000FFBFFFFF37
:1009A00070B5050004692368DB0E01261E40431E56
:1009B0009841C0B28E4A8F498F4B98476B68012B84
:1009C0004DD063688D4A13406360E3695B07FCD4D4
:1009D0002B885A054ED56A88D20704D56A888021AB
:1009E000C9000A436A805B00854A1A40E3695B07D5
:1009F000FCD4636A8021C9010B4013438022120298
:100A000013436362E3695B07FCD42E697D4A337E3E
:100A1000DBB21800511E002A02D00A009B07F6D054
:100A20002368DB0E01221A40E3695B07FCD4638B69
:100A30009BB2C10700D48FE09A072FD501222276FE
:100A40006A88802149010A436A806A886E490A409F
:100A50006A80DB0700D4C6E005204042A2E0002EF9
:100A6000AFD062688023DB0213436360E3695B07F6
:100A7000FCD4ADE75B00FF2213406A8801210A40E5
:100A80001A43E3695B07FCD4636A8021C9010B4008
:100A900013436362E3695B07FCD4B6E75B071BD4CF
:100AA0006B885B0534D52A881212520006231A403F
:100AB000E3695B07FCD4636A8021C9010B401343DF
:100AC000F12213436362E3695B07FCD46B884F4AEE
:100AD00013406B80002065E06B68002B04DD6B88A1
:100AE0008022520113436B806B881BB2002B06DB04
:100AF0006B88454A13406B800220404252E0626896
:100B0000C0239B0213436360E3695B07FCD4EFE7F8
:100B10006868002811D16B881BB2002B04DB6B883E
:100B2000394A13406B803DE06268C0239B02134347
:100B30006360E3695B07FCD4F1E7AB681A782823AC
:100B4000E254E3695B07FCD4AB680133AB606B68CC
:100B5000013B6B60002025E0810747D569680029CB
:100B60003CD05B073AD401396960002901D1002AE1
:100B70001BD0012917D06B68002B07D16B881BB2E3
:100B8000002B1BDB6B88204A13406B80AA68531C28
:100B9000AB60E3695B07FCD42823E35C137002239A
:100BA0002376002070BD002AE5D062688023DB0236
:100BB00013436360E3695B07FCD4DCE76368124AB4
:100BC00013406360E3695B07FCD46268C0239B0247
:100BD00013436360E3695B07FCD4D3E70223237606
:100BE00002204042DEE704204042DBE70020D9E754
:100BF00094050000A032000079060000FFFFFBFF13
:100C0000FE070000FFFF0000FFFEFFFFFFFBFFFFEE
:100C100070B505000C00431E9841C0B2B4220449CF
:100C2000044B98472C602000034B984770BDC0468A
:100C3000A0320000790600009D07000002681368DA
:100C400002210B431360D3699B07FCD170470368F3
:100C500089B2198570470368188DC0B27047036860
:100C6000187E01231840704703681B7E5B08012033
:100C70001840704703681B7E9B080120184070478E
:100C800070B504000D00431E9841C0B2044A0549E6
:100C9000054B9847256129002000044B984770BDFB
:100CA00007050000A032000079060000D50800000A
:100CB00070B50400194D431E9841C0B2184A29006E
:100CC000184EB04724692000431E9841C0B2164A0E
:100CD0002900B0472368022213432360E3699B077E
:100CE000FCD104201149E3695B07FCD4628B120933
:100CF00003231340012B0BD001390029F3DC013809
:100D0000002807D010236383E3695B07FCD4E9E77D
:100D1000002070BD06204042FBE7C046A032000024
:100D20002405000079060000F4050000FFFF000024
:100D3000F8B505000E000469431E9841C0B2934AFD
:100D40009349944FB8472869431E9841C0B2B822CE
:100D5000D2008F49B8473000431E9841C0B28E4A36
:100D60008B49B8476B88DB0500D50BE1728880237F
:100D70005B009C461A4372802A00310089C989C2EF
:100D80006268634613436360E3695B07FCD4280031
:100D9000824B9847002800D19DE06B88804A134021
:100DA0006B80F8BD05204042A6E073881BB2002B83
:100DB00004DB6B887A4A13406B80F2E76268C023D9
:100DC0009B0213436360E3695B07FCD4F1E75307BD
:100DD0001BD46B885B0534D52A8812125200062377
:100DE0001A40E3695B07FCD4636A8021C9010B40A8
:100DF0001343F12213436362E3695B07FCD46B88FE
:100E0000684A13406B80002065E06B68002B04DDAE
:100E10006B888022520113436B806B881BB2002BBE
:100E200006DB6B885E4A13406B800220404252E032
:100E30006268C0239B0213436360E3695B07FCD4D1
:100E4000EFE76868002811D16B881BB2002B04DB28
:100E50006B88534A13406B803DE06268C0239B025D
:100E600013436360E3695B07FCD4F1E7AB681A786E
:100E70002823E254E3695B07FCD4AB680133AB6021
:100E80006B68013B6B60002025E0BB0778D56B6881
:100E9000002B6DD052076BD4013B6B60002B01D14E
:100EA00000294CD0012B48D06B68002B07D16B88F0
:100EB0001BB2002B4CDB6B88394A13406B80AA684D
:100EC000531CAB60E3695B07FCD42823E35C13701D
:100ED0000223237600206B88DB0500D461E72869B4
:100EE000314A037EDBB21F00511E002A00D159E7B0
:100EF0000A009B07F5D00020002800D055E72368A2
:100F0000DB0E01211940E3695B07FCD4628B92B2CE
:100F1000FB07BAD5930700D459E7012323766B88E2
:100F2000802149010B436B806B881D490B406B800E
:100F3000D30722D505204042CDE70029B4D062680E
:100F40008023DB0213436360E3695B07FCD4ABE7F8
:100F50006368134A13406360E3695B07FCD462680B
:100F6000C0239B0213436360E3695B07FCD4A2E7E1
:100F70000223237602204042ADE704204042AAE744
:100F80000020A8E7062040420BE7C046BF0500004E
:100F9000A032000079060000C1050000A109000090
:100FA000FFFEFFFFFFFBFFFFFFFF0000044B9A69FE
:100FB00002210A439A611A7F1D310A401A7770474D
:100FC000000800408222D2011C4B5A8002221C4B96
:100FD0009A841B4BDB68DB06FBD51A4A184BDA6296
:100FE000194B1B689B0E3F2B20D09B028022920046
:100FF0001343134A936206239384938C5B0718D59B
:101000000F4BDA68D0231340D02BF9D10C4A938CC4
:1010100080210B439BB29384084B5B78DB09FBD1A7
:10102000074A936902218B4393617047FC23DB01DC
:10103000DFE7034BDB68DB06FBD5E7E7000C00408E
:1010400000080040B905010424608000024B034AF7
:101050005A6005221A60704710E000E0FFFFFF00B1
:1010600010B5014B984710BD4D100000080E0BE065
:101070000B4B0C4858609860094B1B68DB03FBD591
:10108000094B9C4661441000421ED2B20028EFD1A9
:10109000034B59609960024B1B68DB03FBD570471B
:1010A00010E000E0FFFFFF00010000FFF0B585B099
:1010B000384B98470822C023DB059A610620364B3F
:1010C0009847364C2000364B984721001C31354854
:1010D000354DA847210026313448A84721003F312B
:1010E0003348A847334EA06CB04702000B0032488B
:1010F000A847606CB04702000B003048A847E06C7E
:10110000B04702000B002E48A847606DB0470200B0
:101110000B002C48A847206DB04702000B002A485E
:10112000A847A46D294F2A49201CB8470390294994
:10113000201CB847284FB847C3B264205843274BF8
:101140009847011C201C264B9847B847C4B2039807
:10115000B04702000B0000942248A8470021072056
:10116000214CA04700210620A04700210520A047D0
:1011700010210020A04710210120A04707201B4C70
:10118000A0470620A0470520A047FA204000184BA2
:101190009847F3E715010000511A0000880000206D
:1011A000E9190000BC320000BD1D0000D032000073
:1011B000E432000065260000F83200001833000019
:1011C000383300005433000070330000BD1F0000AE
:1011D00000007A440000C8428D1F0000C5250000B1
:1011E0004D2200008C330000ED1C0000851D000026
:1011F000B11D000070B582B006000C00074D01A9BA
:101200002800074B98472800064B9847A2B23100A8
:101210000198054B984702B070BDC04650010020B0
:10122000490600001D06000081040000F0B583B0EF
:1012300005000E0017000B4C01A920000A4B98472F
:1012400020000A4B984729B2802212012000084B47
:1012500098473A0031000198064B9847002003B0A8
:10126000F0BDC0465C010020770400005904000076
:1012700065040000B9040000F0B583B005000E005D
:1012800017000B4C01A920000A4B984720000A4B7D
:10129000984729B2802212012000084B98473A0053
:1012A00031000198064B9847002003B0F0BDC046BE
:1012B0005C01002077040000590400006504000070
:1012C00081040000F8B500AF0D005E1C1C0008345E
:1012D000E408E4006946091B8D460D70012404E012
:1012E0001519013D2D780D550134B442F8DB8468A1
:1012F0005A1C5C23C05CA047002801D1BD46F8BD44
:101300000120FBE770B582B0040016001D006B469B
:10131000D97107335C22805C5B3A1900A368984757
:10132000002802D0012002B070BDE368AAB25C219F
:10133000605C310098470028F5D00120F3E70000F9
:1013400010B543690148984710BDC046B43300004A
:1013500010B5041E3BD04369002B3AD08269002AA5
:1013600015D00269002A16D02368002B16D06268B7
:10137000002A18D0E268002A1AD0A268002A1CD0DD
:10138000984700281ED101225D23E25420E0124834
:10139000984703201CE011489847E5E76369104827
:1013A0009847032014E063690E48984703200FE034
:1013B00063690D48984703200AE063690B48984722
:1013C000032005E063690A489847012000E00220F5
:1013D00010BD0320FCE7C046D0330000EC33000012
:1013E0000034000024340000443400006034000065
:1013F0008034000000280BD05D23C35C012B01D09A
:1014000003207047202319435C23C1540020F8E7D0
:101410000220F6E7F0B5C64600B584B004000F0020
:10142000019200282ED05D23C55C012D04D003203D
:1014300004B004BC9046F0BD5C3B02AA0732002118
:10144000114EB047002817D10121B94002ABDA1D77
:1014500013788B435BB2019EBE401E43167001237E
:1014600000212000094EB0470028E1D008492000A3
:10147000084B98472800DBE705492000054B9847B3
:101480002800D5E70220D3E705130000C5120000AD
:10149000D834000041130000F0B5C64600B584B052
:1014A00004000F00019200282ED05D23C55C012DA1
:1014B00004D0032004B004BC9046F0BD5C3B02AAFB
:1014C00007320A21114EB047002817D10121B94037
:1014D00002ABDA1D13788B435BB2019EBE401E4304
:1014E000167001230A212000094EB0470028E1D0E0
:1014F00008492000084B98472800DBE707492000EF
:10150000054B98472800D5E70220D3E705130000D4
:10151000C512000014350000411300000035000022
:10152000F0B5C64600B584B004000D000192002855
:1015300020D05D23C75C012F04D0032004B004BC7D
:101540009046F0BD5C3B02AA073209210A4EB04723
:10155000002809D1094B5A5D02AB07331B781340B1
:101560002B41019A1370E9E705492000054B984784
:101570003800E3E70220E1E705130000AC33000088
:101580000035000041130000F0B5C64600B584B038
:1015900004000F00019200282ED05D23C55C012DB0
:1015A00004D0032004B004BC9046F0BD5C3B02AA0A
:1015B00007320621114EB047002817D10121B9404A
:1015C00002ABDA1D13788B435BB2019EBE401E4313
:1015D0001670012306212000094EB0470028E1D0F3
:1015E00008492000084B98472800DBE707492000FE
:1015F000054B98472800D5E70220D3E705130000E4
:10160000C5120000383500004113000020350000ED
:10161000F0B5C64600B584B004000F000192002862
:101620002ED05D23C55C012D04D0032004B004BC82
:101630009046F0BD5C3B02AA07320121114EB04733
:10164000002817D10121B94002ABDA1D13788B4372
:101650005BB2019EBE401E43167001230121200093
:10166000094EB0470028E1D008492000084B9847B0
:101670002800DBE707492000054B98472800D5E7FD
:101680000220D3E705130000C51200005C350000FE
:101690004113000048350000F0B5C64600B584B0DF
:1016A00004000F00019200282ED05D23C55C012D9F
:1016B00004D0032004B004BC9046F0BD5C3B02AAF9
:1016C00007320221114EB047002817D10121B9403D
:1016D00002ABDA1D13788B435BB2019EBE401E4302
:1016E0001670012302212000094EB0470028E1D0E6
:1016F00008492000084B98472800DBE707492000ED
:10170000054B98472800D5E70220D3E705130000D2
:10171000C512000098350000411300008835000014
:1017200070B582B0041E1AD05D23C55C012D02D0B5
:10173000032002B070BD5C3B6A4607320721094EA8
:10174000B04701236A46073208212000B04700282D
:10175000EFD005492000054B98472800E9E7022013
:10176000E7E7C04605130000C8350000411300003C
:10177000F0B583B004000E00002829D05D23C55CBD
:10178000012D02D0032003B0F0BD5C3B6A46073256
:101790000521104FB847002814D16B46DA1D137885
:1017A00002218B4376001E43167001230331200073
:1017B000094EB0470028E6D008492000084B98475A
:1017C0002800E0E707492000054B98472800DAE7A2
:1017D0000220D8E705130000C5120000F035000014
:1017E00041130000DC350000F0B583B004000E00AA
:1017F000002829D05D23C55C012D02D0032003B051
:10180000F0BD5C3B6A4607320521104FB8470028FF
:1018100014D16B46DA1D137804218B43B6001E43A6
:101820001670012301312000094EB0470028E6D090
:1018300008492000084B98472800E0E707492000A6
:10184000054B98472800DAE70220D8E70513000087
:10185000C51200002C36000041130000DC350000EA
:10186000F0B5C64600B584B004000F000192002810
:101870002ED05D23C55C012D04D0032004B004BC30
:101880009046F0BD5C3B02AA07320421114EB047DE
:10189000002817D10121B94002ABDA1D13788B4320
:1018A0005BB2019EBE401E4316700123042120003E
:1018B000094EB0470028E1D008492000084B98475E
:1018C0002800DBE707492000054B98472800D5E7AB
:1018D0000220D3E705130000C51200007436000093
:1018E000411300004C360000F0B583B005004B42B8
:1018F0005941CCB200282AD05D23C65C012E02D00B
:10190000032003B0F0BD5C3B6A4607320521114F4E
:10191000B847002815D16B46DA1D1178102399437A
:101920000B002101194311700123052128000A4CE5
:10193000A0470028E5D009492800094B9847300006
:10194000DFE708492800064B98473000D9E7022016
:10195000D7E7C04605130000C5120000F8360000A6
:1019600041130000DC350000F0B583B005004B42A8
:101970005941CCB200282AD05D23C65C012E02D08A
:10198000032003B0F0BD5C3B6A4607320521114FCE
:10199000B847002815D16B46DA1D117820239943EA
:1019A0000B006101194311700123052128000A4C25
:1019B000A0470028E5D009492800094B9847300086
:1019C000DFE708492800064B98473000D9E7022096
:1019D000D7E7C04605130000C512000020370000FD
:1019E00041130000DC35000070B504001C300A22F1
:1019F0000D490E4DA84720003F3005220C49A8474D
:101A00002000263019220B49A8470B4BA3640B4B2F
:101A100063640B4BE3640B4B63650B4B23650B4B10
:101A2000A365002070BDC046683700006F29000024
:101A300074370000783700000000B0409A99993E52
:101A4000000016430000FA42000020C20080A244B9
:101A500030B583B005008A4C602200212000894BFC
:101A60009847894B2360894B6360894BE360894BBE
:101A7000A360894B2361894B6361894BA36120007B
:101A8000884B98476B46D87107331B78002B04D0DE
:101A90006B46D879C0B203B030BD29007848824B7C
:101AA00098476B46D87107331B78002B03D06B46E1
:101AB000D879C0B2EFE7002171487C4B98476B465C
:101AC000D87107331B78002B03D06B46D879C0B28E
:101AD000E1E701216A48764B98476B46D871073396
:101AE0001B78002B03D06B46D879C0B2D3E7002116
:101AF0006348704B98476B46D87107331B78002BAF
:101B000003D06B46D879C0B2C5E701215C486A4B67
:101B100098476B46D87107331B78002B1CD10022E5
:101B20006B469A716B4606331B78DBB2072B1BD8CA
:101B30006B469979C9B201225148604B98476B4670
:101B4000D87107331B78002B0AD16B469A1D9B79FD
:101B50000133DBB21370E5E76B46D879C0B29AE780
:101B60006B46D879C0B296E700226B469A716B46F5
:101B700006331B78DBB2072B17D86B469979C9B2AD
:101B800000223F484E4B98476B46D87107331B786D
:101B9000002B06D16B469A1D9B790133DBB2137083
:101BA000E5E76B46D879C0B275E700226B469A71BB
:101BB0006B4606331B78DBB2072B19D86B46997935
:101BC000C9B200222E483F4B9847431E9841C0B2ED
:101BD0006B46DA1DD871DB79002B06D16B469A1D56
:101BE0009B790133DBB21370E2E71078C0B252E7A1
:101BF00000226B469A716B4606331B78DBB2072BCB
:101C000019D86B469979C9B200221D482E4B9847C6
:101C1000431E9841C0B26B46DA1DD871DB79002BA8
:101C200006D16B469A1D9B790133DBB21370E2E754
:101C30001078C0B22FE700226B469A716B460633CC
:101C40001B78DBB2072B15D80D48204B9847431E55
:101C50009841C0B26B46DA1DD871DB79002B06D1F2
:101C60006B469A1D9B790133DBB21370E6E710785F
:101C7000C0B210E70A20084B984700200BE7C04687
:101C8000E800002051290000A91D0000AD1D000042
:101C9000151E0000391E0000B11D0000BD1D000012
:101CA0005D1E000051130000F513000071170000C5
:101CB000E9170000E9180000691900006118000028
:101CC0001116000089150000991600002117000068
:101CD00010B50A0001000348034B9847431E984182
:101CE000C0B210BDE80000209914000010B5040037
:101CF000102908D00A0001001248134B9847041E0F
:101D000019D001201DE0012201000E480F4B984719
:101D1000002801D0012014E00122210009480A4BCB
:101D20009847002809D001200BE000212000084B33
:101D300098470134E4B2072CF7D93220054B984775
:101D4000002010BDE80000201514000089150000D7
:101D5000D11C0000B11D000000B583B001006B462E
:101D6000DA1D0648064B9847431E9841C0B200282A
:101D700002D16B46D879C0B203B000BDE8000020A4
:101D80002115000010B50400054B98474142414120
:101D9000C9B22000034B9847431E9841C0B210BD02
:101DA000591D0000D11C0000002070470020704722
:101DB00010B5014B984710BD910300000FB470B5EA
:101DC000C2B046AC40CC80256D002A00002102A89C
:101DD0000C4B9847009423003200290002A80A4CBB
:101DE000A04702A8094B9847C0B26B46D871D97971
:101DF000C9B202A8064B984742B070BC08BC04B0F8
:101E00001847C04651290000F1290000612900004F
:101E1000F511000010B5054B9847002800D110BD02
:101E20000348044B98470120F9E7C0462D120000F3
:101E300090370000BD1D000010B5054B98470028E5
:101E400000D110BD0348044B98470120F9E7C04674
:101E50007912000090370000BD1D000010B5072862
:101E600000D810BD0148024B9847FAE7C43700007C
:101E7000BD1D0000002243088B4274D303098B422E
:101E80005FD3030A8B4244D3030B8B4228D3030C4A
:101E90008B420DD3FF22090212BA030C8B4202D3EC
:101EA0001212090265D0030B8B4219D300E0090A14
:101EB000C30B8B4201D3CB03C01A5241830B8B421D
:101EC00001D38B03C01A5241430B8B4201D34B0306
:101ED000C01A5241030B8B4201D30B03C01A52416B
:101EE000C30A8B4201D3CB02C01A5241830A8B42F0
:101EF00001D38B02C01A5241430A8B4201D34B02D9
:101F0000C01A5241030A8B4201D30B02C01A52413C
:101F1000CDD2C3098B4201D3CB01C01A52418309F0
:101F20008B4201D38B01C01A524143098B4201D32A
:101F30004B01C01A524103098B4201D30B01C01A55
:101F40005241C3088B4201D3CB00C01A52418308CF
:101F50008B4201D38B00C01A524143088B4201D3FC
:101F60004B00C01A5241411A00D20146524110465C
:101F70007047FFE701B5002000F006F802BDC0463B
:101F80000029F7D076E770477047C0469E2110B50C
:101F9000C905041C00F0E8FB002803D1201C00F058
:101FA000F1FA10BD9E21201CC90500F04FF900F088
:101FB000E9FA80231B069C466044F2E7F0B55746D9
:101FC0004E46DE464546E0B544024300C60F83B0A8
:101FD0000F1C640A1B0EB24653D0FF2B27D0802261
:101FE000E400D20414437F225242904698440023D6
:101FF00099469B467D027800FB0F6D0A000E009308
:1020000024D0FF2846D080230021ED00DB041D43AF
:102010007F384746381A4F460F43BF00B946330052
:10202000009A874F53404A46BA5801939746002C6E
:102030004ED108239946F7339846FD3B9B467D02D7
:102040007800FB0F6D0A000E0093DAD1002D26D127
:10205000002001213300009A7A4F53404246101A63
:102060004A460A439200BA581D009746009B2C002E
:102070009A468B465B46022B31D15346FF21002402
:1020800038E0002C17D104239946002398460133E9
:102090009B46AFE7FF20002D0BD10221DAE7280095
:1020A00000F06CFB431F9D4076235B42181A002111
:1020B000AFE70321ADE7200000F060FB431F9C4029
:1020C00076235B421B1A9846002399469B4691E76C
:1020D0000C239946F3339846FC3B9B468AE7032B37
:1020E00000D1A5E05546012B00D081E0012300215D
:1020F00000242B406402C905600ADB07084318432B
:1021000003B03CBC90469946A246AB46F0BD802445
:102110000023E403FF21EDE7FF210024EAE7012388
:10212000591A1B2966DD019A134000210024E1E7BA
:102130008023DB031C4238D01D4251D01C43640273
:10214000640A3300FF21D5E763016C01A3423BD24F
:102150001B260021013801251F0049005B00002FCC
:1021600001DB9C4201D81B1B2943013E002EF3D109
:102170001C00631E9C410C4301007F310029CEDD11
:10218000630704D00F232340042B00D00434230121
:1021900003D501002C4B80311C40FE290DDD0123AD
:1021A000019AFF2113400024A4E78023DB031C4392
:1021B0006402640A3300FF219CE70123019AA40111
:1021C000640AC9B2134095E71B1B1A260121C2E716
:1021D000009B8B469A4600244CE76302E5D5002518
:1021E0008024E4032C436402640A009BFF2181E7FE
:1021F0000195C1E723002020CB40411A8C40611E8D
:102200008C411C43630704D00F232340042B00D0D0
:102210000434630105D50123019A012113400024F0
:1022200068E70123019AA401640A1340002161E7D1
:102230008023DB031C436402640A5346FF2159E7F1
:10224000E037000020380000FFFFFFF7F0B54F46F1
:10225000D64646464400C0B5C20F47024802400A6F
:10226000844666467B0A4800C90F9A46240E15002C
:10227000DB00000E8946F600FF2800D18FE0012127
:102280004F464F403900914266D0221A002A00DCA6
:102290009DE000283DD1002E00D18BE0511E002989
:1022A00000D0B5E001249B1B5A0144D59B019F0936
:1022B000380000F063FA05388740844200DD96E07C
:1022C000041B3A0020200134E240041BA7403B00DD
:1022D0005F1EBB41002413435A0704D00F221A404B
:1022E000042A00D004335A0127D50134FF2C00D131
:1022F00079E001229B015B0AE4B22A405B02E4051B
:10230000580AD207204310431CBC90469946A24667
:10231000F0BDFF2CE0D08021C9040E431B2A7BDCDA
:1023200031002020D140821A9640721E96410E4301
:102330009B1B5A01BAD45A07D0D10122DF082A4088
:10234000FF2C33D1002F00D1A8E08023DB033B43D7
:102350005B025B0AFF24D1E7211A00294CDD00282B
:102360002AD0FF2CB8D08020C00406431B2900DDF2
:10237000AFE030002027C840791A8E40711E8E4190
:1023800006439B195901D6D50134FF2C00D185E0B5
:1023900001227A491A405B080B4013439CE7002E48
:1023A00000D070E76BE73B1EC5D100227B025B0AC1
:1023B000E4B2A3E714008FE7002E4DD0481E00289A
:1023C00057D19B1901245A01B5D50224E0E7002A10
:1023D00025D1621CD2B2012A72DD9F1B7A0135D54C
:1023E000F71A0D0064E7012200232A4086E73B002C
:1023F000634A241A13406FE700296CD1611CC8B2EC
:1024000001284EDDFF2949D09B195B080C0063E7CA
:10241000FF2A41D00A0081E701269B1B89E7002C97
:102420001CD0FF2821D08024E404524223431B2ADD
:1024300000DD96E01C002025D440AA1A93405A1EC5
:1024400093412343F31A04000D002DE7002F00D021
:102450002EE700220024A9E70C003DE7002B58D00E
:10246000D243002AEED0FF28E1D13300FF240D0033
:1024700032E7FF2910D0010078E7002B6ED0FF244F
:10248000002E00D128E780225146D203114203D00A
:102490006146114200D13300FF241DE7FF240023D1
:1024A0002CE7002CE9D1002B63D0002E00D113E7DC
:1024B0009B195A0100D43EE7314A0C0013400BE748
:1024C000002C1ED1002B2FD1002E4FD033000D0039
:1024D00002E7012655E7002C1FD1002B43D0C9434A
:1024E00000290BD0FF2839D01B2944DC1C002027F1
:1024F000CC40791A8B40591E8B4123439B19040011
:1025000040E7002B1AD1002E24D180270022FF03A0
:102510001BE7330004000D00DEE6FF281ED08024F8
:10252000E40449422343DFE7002E00D1D4E69F1B99
:102530007A0100D437E7F31A0D00CDE6FF24002E10
:1025400000D1C9E680225046D2031042A4D0604692
:102550001042A1D133000D00FF24BDE63300FF245B
:10256000BAE601236EE733000400B5E60027002237
:102570001CE73300B0E60123C0E7C046FFFFFF7D44
:10258000FFFFFFFB41024300C20F490A1B0E002060
:102590007E2B0DDD9D2B0CDC802000040143952B50
:1025A0000ADC9620C31AD9404842002A00D108000C
:1025B0007047034BD018FBE7963B9940F4E7C046C1
:1025C000FFFFFF7F70B5002830D0C317C4185C40F0
:1025D000C50F200000F0D2F89E231B1A962B0DDCAD
:1025E0009622D21A94402A006402640ADBB2640282
:1025F000DB05600AD2071843104370BD992B19DC24
:102600009922D21A002A29DD94402200144C144049
:10261000510704D00F210A40042A00D0043462017B
:1026200013D4A401640ADBB22A00E0E700220023ED
:102630000024DCE705222100121AD140B922D21A67
:102640009440621E94410C43DAE7054B2A001C407B
:102650009F23A4011B1A640ADBB2C8E72200D5E756
:10266000FFFFFFFB4100090E4B1C70B5DBB24602B9
:10267000750AC40F012B14DDE0239B006D07360B98
:10268000CB1800210A0D280012051C4D32435B05B2
:102690002A405B0813435B00E4075B0823431900EF
:1026A00070BD002914D1002D1ED0280000F066F85E
:1026B0000A281CDC0B232A001B1ADA4003001533FE
:1026C0009D400F4B12031B1A5B05160B5B0DD8E7E1
:1026D000002D06D0320B802636036D071643094BBA
:1026E000CFE7084B0026CCE700230026C9E703000C
:1026F0002A000B3B9A400025E3E7C046FFFF0F800E
:1027000089030000FF0700008446081C6146FFE7BC
:102710001FB500F0B7F8002801D40021C8421FBD42
:1027200010B500F049F84042013010BD10B500F07E
:10273000A9F8002801DB002010BD012010BDC04613
:1027400010B500F09FF8002801DD002010BD012029
:1027500010BDC04610B500F055F8002801DC00207F
:1027600010BD012010BDC04610B500F04BF8002888
:1027700001DA002010BD012010BDC0461C2101233C
:102780001B04984201D3000C10391B0A984201D354
:10279000000A08391B09984201D30009043902A232
:1027A000105C40187047C046040302020101010199
:1027B000000000000000000070B5420045024E021B
:1027C0004C00C30F6D0A120E760A240EC90F0120A9
:1027D000FF2A06D0FF2C03D0A24201D1B54206D079
:1027E00070BD002DFCD1FF2CFAD1002EF8D18B4208
:1027F00006D00120002AF3D12800451EA841EFE7AA
:102800000020EDE7F0B5420045024C02C30F48003E
:102810006D0A120E640A000EC90FFF2A1ED0FF288F
:1028200021D0002A0AD16E426E41F6B200280FD1A3
:10283000002C0DD10020002D09D005E0002801D189
:10284000002C01D08B4211D0012158420843F0BD29
:10285000002EF7D0012001390843F8E7002DDED023
:1028600002204042F3E7002CDBD0F9E78242EBDCA8
:1028700004DBA542E8D80020A542E8D20121581E79
:102880000843E4E7F0B542004D024C004602760AE8
:10289000120EC30F6D0A240EC90FFF2A16D0FF2C8B
:1028A00018D0002A0AD170427041C0B2002C15D055
:1028B000002805D0012001390843F0BD002C13D0B9
:1028C000994214D001205B421843F6E70220002E03
:1028D000F3D1E4E70220002DEFD1E2E7002DE7D1AC
:1028E0000020002EE9D0EDE7002DE9D1EAE7A24271
:1028F00006DCDFDBAE4203D80020AE42DAD3DCE7F1
:10290000012049420843D8E770B500260C4D0D4C14
:10291000641BA410A64209D1002600F0EBFF0A4D6B
:102920000A4C641BA410A64205D170BDB300EB583D
:1029300098470136EEE7B300EB5898470136F2E7C7
:10294000003900000039000000390000043900009F
:1029500003008218934200D1704719700133F9E7E0
:102960000023C25C0133002AFBD1581E704770B5AA
:102970000400002A00D170BD0D78561E631C25701E
:102980000131002D05D1A4189C42F4D01D700133F3
:10299000FAE71C003200ECE730B514009BB00500EC
:1029A0001A00002C05DA8B230360012040421BB083
:1029B00030BD822368469B008381002300910491EF
:1029C0009C4200D0631E02930593012369465B423B
:1029D000CB8128001E9B00F0D7F8431C01DA8B2323
:1029E0002B60002CE3D00023009A1370DFE7000077
:1029F00007B5009313000A00010002480068FFF7C2
:102A0000CBFF0EBD00000020032370B5CD1C9D43FD
:102A1000083506000C2D1ED20C25A9421DD8300009
:102A200000F076FB254A14682100002919D1244CB6
:102A30002368002B03D1300000F032FB2060290016
:102A4000300000F02DFB431C2CD10C2330003360F0
:102A500000F05FFB03E0002DDFDA0C233360002081
:102A600070BD0B685B1B1AD40B2B03D90B60CC1801
:102A7000256003E08C420ED163681360300000F0E3
:102A800048FB200007220B30231D9043C31AE7D0D8
:102A90005A42E250E4E74B6863600C00EEE70C003A
:102AA0004968C2E70323C41C9C43A042E0D0211A1A
:102AB000300000F0F5FA431CDAD1C6E748010020E7
:102AC0004C010020F0B58E6885B007000C00039221
:102AD00001939E4239D890238A89DB001A4234D070
:102AE0000325096923685B1A0293636902985D43B1
:102AF000EB0F5D19019B6D1001331B18AB4200D920
:102B00001D00530532D529003800FFF77DFF061E52
:102B100009D10C233B6040230120A289404213438A
:102B2000A38105B0F0BD029A216900F0D6FAA3890D
:102B3000144A1A4080231343A381029B2661F6188E
:102B400026606561019EED1AA560019BB34200D22B
:102B50001E0032000399206800F0C8FAA368002024
:102B60009B1BA36023689E192660DAE72A003800C1
:102B700000F01AFB061EE0D12169380000F0CAFA05
:102B8000C7E7C0467FFBFFFFF0B59FB002900593FB
:102B90008B890F0016001B0611D50B69002B0ED177
:102BA0004021FFF731FF38603861002805D10C2340
:102BB000029A013813601FB0F0BD40237B610023EF
:102BC00006AD6B6120336B761033AB76340023781F
:102BD000002B47D1A31B04930DD0A31B3200390057
:102BE0000298FFF76FFF431C00D1B5E06A69049BB0
:102BF000944663446B612378002B00D1ACE0012242
:102C0000002352426A6002A95432521801342B60E8
:102C1000EB60AB601370AB65584E05222178300035
:102C200000F050FA621C002820D12968CB0604D598
:102C3000532302AE20309B1918700B0704D5532381
:102C40002B2002AE9B19187023782A2B16D0002057
:102C50000A21099B2278303A092A55D9002815D033
:102C6000099313E0252BB5D00134B0E70123801B75
:102C70008340296814000B432B60CDE7059B181D8A
:102C80001B680590002B39DB0993140023782E2B49
:102C90000BD16378621C2A2B3ED1059B02341A1D8E
:102CA0001B680592002B34DB0793354E21780322F5
:102CB000300000F007FA002806D04023801B834034
:102CC0002A68013413432B60217806222D48661CA4
:102CD000297600F0F7F9002846D02B4B002B2FD196
:102CE0002968059B0722C90528D59B1893430833FB
:102CF00005936B69039A9B186B6167E75B42EB6016
:102D000002230B432B60C0E74B4301349B18012087
:102D1000A0E701235B42C7E7002314000A201A0042
:102D20006B6021783039092903D9002BBDD0079277
:102D3000BBE74243013452180123F2E70733D5E7DA
:102D400005AB00933A00114B2900029800E000BF48
:102D50000390039B0133CCD1BB890B985B0600D455
:102D600029E70120404226E705AB00933A00074BD4
:102D70002900029800F07AF8EAE7C046C03800005F
:102D8000C6380000CA38000000000000C52A000054
:102D9000F7B5150001938A680B6900900C00934207
:102DA00000DA130022002B6043321278002A01D08F
:102DB00001332B6023689B0602D52B6802332B60FE
:102DC000062723681F4027D0230043331B785A1E51
:102DD00093412268920630D4220001994332009830
:102DE000089EB047431C25D0062320682A68E16866
:102DF00003400025042B03D18D1AEB43DB171D4044
:102E0000A3682269934201DD9B1AED180027BD4299
:102E100020D1002010E00137E3682A689B1A9F4206
:102E2000D2DA22000123193201990098089EB04796
:102E3000431CF0D101204042FEBD3020E118433157
:102E4000087021005A1C45310978A2184332023318
:102E50001170C1E7220001231A3201990098089EDF
:102E6000B047431CE6D00137D1E70000F0B58BB086
:102E700006920A0043320793059004920A7E0C00E2
:102E8000109B6E2A00D18FE017D8632A2CD008D867
:102E9000002A00D199E0582A54D0260042363270D8
:102EA00029E0642A01D0692AF7D121681A68080646
:102EB00023D5111D1960156825E0732A00D188E01B
:102EC00008D86F2A29D0702AE7D1202209680A433E
:102ED000226003E0752A20D0782ADED122007821F2
:102EE000453211706C4A30E00E001A684236111DEE
:102EF000196013683370012379E04906D9D5111D93
:102F000019600023D55E002D03DA2D23049A6D424B
:102F10001370624B0A2703932FE020681968050697
:102F200003D5081D18600D6805E04006F9D50D6849
:102F3000081D1860ADB2594B082703936F2A18D0AB
:102F40000A2716E045310A70544A03921A6821682C
:102F5000101D18601568080622D5CB0702D520235E
:102F6000194321601027002D03D1202322689A43A2
:102F700022602300002243331A706368A360002B91
:102F80005CDB0422216891432160002D58D1049E0E
:102F9000002B64D02600039B42361B7833705EE022
:102FA0004806DAD5ADB2D8E709681A68080605D52B
:102FB000111D1960136862691A6006E04906F7D5A9
:102FC000111D19601368A28A1A800023049E2361D0
:102FD00054E01A68111D19601668002162683000FB
:102FE00000F070F8002801D0801B606063682361E6
:102FF0000023049A137041E0236932000699059872
:10300000079DA847431C43D0236800259B070FD486
:10301000099BE06898423DDA18003BE0220001235A
:10302000193206990598079EB047431C30D00135E8
:10303000E368099A9B1A9D42F0DBE9E7002DA9D0CD
:10304000049E28003900FEF79BFF039B013E5B5C5A
:10305000280033703900FEF70DFF051EF1D1082F4F
:1030600009D12368DB0706D563682269934202DC35
:103070003023013E3370049B9B1B2361079B09AAED
:1030800000932100069B0598FFF782FE431CB3D1F5
:10309000012040420BB0F0BDE2380000D138000002
:1030A000002370B5064C050008002360FDF7E8FA20
:1030B000431C03D12368002B00D02B6070BDC04699
:1030C0007C010020C9B28218904201D100207047D3
:1030D00003788B42FBD00130F6E7002310B59A420B
:1030E00000D110BDCC5CC4540133F8E710B5884260
:1030F00002D98B18984208D300239A4207D0CC5C9F
:10310000C4540133F9E78B5C8354013AFBD210BD00
:103110007047704770B50500002910D00C1F236858
:10312000002B00DAE4182800FFF7F2FF1D4A1368AD
:10313000002B05D1636014602800FFF7EAFF70BD23
:10314000A34209D9216860188342F3D118685B68EB
:1031500041182160EEE713005A68002A01D0A2420C
:10316000F9D919685818A0420BD1206809185818C5
:1031700019608242E0D110685268411819605A60A3
:10318000DAE7A04202D90C232B60D5E7216860184A
:10319000824203D1106852684118216062605C600D
:1031A000CAE7C04648010020F8B507000D00160028
:1031B000002905D11100FFF727FC04002000F8BD0D
:1031C000002A03D1FFF7A6FF3400F7E700F012F85A
:1031D0002C008642F2D931003800FFF715FC041E9E
:1031E000ECD029003200FFF778FF29003800FFF704
:1031F00091FFE3E70B1F1B68181F002B01DA0B5828
:10320000C01870472E2E2F68616C2F7372632F6861
:10321000616C5F6932635F6D5F73796E632E63000B
:103220002E2E2F68616C2F7372632F68616C5F693B
:103230006F2E63002E2E2F68616C2F7372632F68C0
:10324000616C5F75736172745F73796E632E630076
:103250000500000004001040000003002BF60000F1
:103260000000000001000000140020000001000028
:10327000E5E600000000D7000080DC02000000004E
:10328000000000000000000000000000000000003E
:10329000000000000000000000000000000000002E
:1032A0002E2E2F68706C2F736572636F6D2F687090
:1032B0006C5F736572636F6D2E63000043686970A5
:1032C000206E616D65203A0925730A0D000000002B
:1032D0004D616E7566616374757265723A20092579
:1032E000730A0D00496E746572666163653A200960
:1032F00025730A0D00000000537570706C792076FC
:103300006F6C74616765206D6178203A2009253003
:103310002E3266560A0D0000537570706C79207657
:103320006F6C74616765206D696E3A200925302ED7
:103330003266560A0D0000004D6178696D756D208A
:1033400063757272656E743A200925302E31666D90
:10335000410A0D0054656D70657261747572652067
:103360004D61783A2009252E3166430A0D00000090
:1033700054656D7065726174757265204D696E3A41
:103380002009252E3166430A0D000000447269763B
:1033900065722076657273696F6E3A200956252E24
:1033A00031662E252E32640A0D0000000102040849
:1033B000102040804D435032333030383A2066611F
:1033C000696C656420746F2025732E0D0A0000005F
:1033D0006D637032333030383A20726563656976D8
:1033E000655F63616C6C6261636B0A006D63703270
:1033F000333030383A2064656C61795F6D730A0050
:103400006D637032333030383A2069326320696E30
:10341000697469616C697A65206973206E756C6C7A
:103420000A0000006D637032333030383A20693260
:10343000635F6465696E74206973206E756C6C0AD5
:10344000000000006D637032333030383A2069324A
:10345000635F72656164206973206E756C6C0A002D
:103460006D637032333030383A206932635F77727F
:10347000697465206973206E756C6C0A0000000029
:103480006D637032333030383A2069326320696EB0
:10349000697469616C697A65206661696C65640A42
:1034A00000000000693263206465696E69742066FB
:1034B00061696C65640000006661696C6564207414
:1034C0006F20657865637574652069727120726F0D
:1034D0007574696E650000007365742070696E20F4
:1034E0006D6F646500000000726561642070696E34
:1034F000206D6F6465207265676973746572000082
:1035000072656164206C61746368207265676973B9
:103510007465720077726974652070696E000000CE
:10352000726561642070756C6C2D757020726567B2
:1035300069737465720000007365742070696E2091
:1035400070756C6C2D7570007265616420696E70A9
:10355000757420706F6C6172697479007365742082
:1035600070696E20696E70757420706F6C6172691D
:1035700074790000726561642070696E20706F6CF0
:1035800061726974790000007265616420696E740B
:1035900065727275707400007365742070696E20B6
:1035A000696E746572727570740000007265616492
:1035B0002070696E20696E74657272757074207304
:1035C00074617475730000007265616420696E74C3
:1035D00065727275707420666C61670072656164F3
:1035E00020657870616E6465722072656700000006
:1035F000696E746572727570742070696E206F7573
:1036000074707574206C6576656C00007265616419
:1036100020696E7465727275707420636170747560
:103620007265207374617475730000007365742093
:10363000696E746572727570742070696E206F7532
:1036400074707574206D6F6465000000726561644C
:1036500020696E74657272757074206F6E20636875
:10366000616E676520636F6E74726F6C2072656740
:103670000000000073657420696E74657272757065
:103680007420636F6D70617265206D6F64650000FA
:10369000726561642064656661756C7420636F6D2A
:1036A000706172652076616C7565207265670000D7
:1036B0007365742070696E2064656661756C742032
:1036C000636F6D706172652076616C7565000000D6
:1036D000726561642070696E2064656661756C74E2
:1036E00020636F6D706172652076616C7565207303
:1036F000746174757300000073657420736C657772
:1037000020726174650000007265616420736C65ED
:1037100077207261746520737461747573000000A2
:103720007365742073657175656E7469616C206F63
:103730007065726174696F6E206D6F646500000062
:10374000726561642073657175656E6369616C2073
:103750006F7065726174696F6E206D6F6465207340
:1037600074617475730000004D435032333030384B
:1037700000000000493243004D6963726F6368695D
:103780007020546563686E6F6C6F6779000000008D
:10379000693263207772697465206661696C65645B
:1037A0002C20636865636B20746865206932632030
:1037B00061646472657373206F7220776972696ED9
:1037C000670A00006D637032333030383A66616CDE
:1037D000736520696E7465727275707420740A0066
:1037E00048210000182100002A2100006C20000060
:1037F0002A2100000E2100002A2100006C20000078
:1038000018210000182100000E2100006C2000008B
:10381000742000007420000074200000302100009B
:103820001821000018210000EC200000D021000029
:10383000EC2000000E210000EC200000D021000050
:1038400018210000182100000E210000D0210000E6
:10385000742000007420000074200000DA210000B1
:103860000000000000000000000000000000000058
:103870000000000000000000000000000000000048
:103880000000000000000000000000000000000038
:103890000000000000000000000000000000000028
:1038A0000000000000000000000000000000000018
:1038B0000000000000000000000000000000000008
:1038C000232D302B2000686C4C0065666745464709
:1038D000003031323334353637383941424344458C
:1038E00046003031323334353637383961626364FB
:1038F00065660000F8B5C046F8BC08BC9E46704737
:10390000DD000000F8B5C046F8BC08BC9E46704714
:04391000B5000000FE
:10391400040000200000000080380000A0380000EF
:1039240060380000000000000000000000000000FB
:103934000000000000000000000000000000000083
:103944000000000000000000000000000000000073
:103954000000000000000000000000000000000063
:103964000000000000000000000000000000000053
:04397400000000004F
:00000001FF
