:1000000098210020210100001D0100001D010000B9
:1000100000000000000000000000000000000000E0
:100020000000000000000000000000001D010000B2
:1000300000000000000000001D0100001D01000084
:100040001D0100001D0100001D0100001D01000038
:10005000850800001D0100001D0100001D010000B9
:100060001D0100001D0100001D0100001D01000018
:100070001D0100001D0100001D0100001D01000008
:100080001D0100001D0100001D0100001D010000F8
:100090001D01000000000000000000001D01000024
:1000A0001D0100001D0100001D0100001D010000D8
:1000B0000000000010B5064C2378002B07D1054B3B
:1000C000002B02D0044800E000BF0123237010BDC4
:1000D0006400002000000000283E0000084B10B51E
:1000E000002B03D00749084800E000BF0748036819
:1000F000002B00D110BD064B002BFBD09847F9E731
:100100000000000068000020283E0000283E00009B
:100110000000000010B500F04DF910BDFEE7000032
:10012000F0B583B02C4B7B442C4A9A5800922C4A51
:100130009A580192009A01998A420DD0284A9A58F9
:100140002649595803E008681060043204312548F4
:10015000185800908242F6D3234A9A5802E00021B0
:10016000116004322149595800918A42F7D3204A3C
:100170009B580093FF23009A9A4313001D4A9360F3
:10018000022190235B001C4AD1501C4AD3780325DE
:10019000AB4302242343D370D3780C27BB430826F8
:1001A0003343D370164B987B302290432022104368
:1001B0009873997BB943314399739A7BAA4322433D
:1001C0009A73104A516880230B43536002F000FE7B
:1001D00001F0ACF8FEE7C046FE3C0000080000005D
:1001E00010000000400000000C000000340000007F
:1001F0000400000000ED00E00070004100500041EC
:10020000004800410040004170B5114A114B5A802E
:10021000C020C0058024640444600F4B0F4A9A62DA
:100220000F4A9A62446058215A5C04252A43D2B28C
:100230005A5484615A5C012082430243D2B25A5418
:100240001C395A5C0F2082435A5400F02DF970BDBE
:1002500005400000000C0040004400410000024046
:10026000000102C070B5134B5020195C0422914369
:100270001954195C0125A94301242143C9B2195419
:100280001838195C0F26B14302263143C9B21954FC
:1002900051215E5C96435E545A5CAA432243D2B21B
:1002A0005A541A5C42390A4020210A43D2B21A54E5
:1002B00070BDC04600440041054A136A08210B4343
:1002C0001362044B044A5A80044A5A807047C0465D
:1002D00000040040000C00401540000013430000E3
:1002E00010B582B0074C7C44FFF7E6FF064BE3589D
:1002F00001930649180000F021F9FFF7B3FF02B09F
:1003000010BDC0463E3B000048000000000C00420B
:1003100030B50F4BC222995C0125A943012421432A
:10032000C9B29954B120195CB33A914303221143E5
:10033000C9B21954C3215A5CAA432243D2B25A54B7
:100340001A5CB4390A4030210A43D2B21A5430BD83
:1003500000440041044A136A80210B431362034A9C
:10036000034B5A807047C04600040040194000000B
:10037000000C004010B582B0074C7C44FFF7EAFF48
:10038000064BE358019300220549180000F0A0F93C
:10039000FFF7BEFF02B010BDAA3A00003000000017
:1003A000001C004210B5024800F040F810BDC046E5
:1003B00010E000E070B500F005FAC022D205082375
:1003C00093619360154B16499962C02109069962A1
:1003D0004324185D01218843185580204003906113
:1003E00090608024E4059C620E4898625425585D14
:1003F0008843585580208004906190609C620A4A2E
:100400009A6259201A5C8A431A54FFF7FDFEFFF7DF
:1004100067FFFFF7AFFFFFF7C5FF70BD0044004166
:1004200008000040100000C0000200C010B5034BDF
:100430007B44186000F056FF10BDC0464CFCFF1F07
:1004400010B5054B7B441C6800F0B6F90100200094
:1004500000F04CFF10BDC04638FCFF1F70B50125F1
:10046000002408E00E4A7A44B358002B00D0984785
:1004700070BD013AD5B2AC42FAD82B195B10DAB292
:10048000002AF5D1FF210B40DE0006497944891985
:1004900049688142E6D0ECD20132D4B2EBE7C046E3
:1004A0001AFCFF1FF4FBFF1F10B50023002B04D024
:1004B0000848784400F09AF910BD074A7A44D900F8
:1004C00050180124644244600020885001339BB2DC
:1004D000ECE7C046A7FFFFFFC4FBFF1F10B584B0C9
:1004E0001438848B01AB1C8014000292064A5A8097
:1004F0000391190000F05EFD002802D1200004B035
:1005000010BD0400FAE7C0460080FFFF10B584B0BC
:100510001438848B01AB1C8014000292064A5A8066
:100520000391190000F046FD002802D1200004B01C
:1005300010BD0400FAE7C0460180FFFF70B504005B
:100540000D00431E9841C0B25E220849794400F074
:100550000DF92900200000F0D7FC002805D1044B3C
:100560007B44A361034B7B44636170BD7C3100001D
:10057000A9FFFFFF73FFFFFF10B500F0DBFC10BD0C
:100580008905890D8023DB001A400A43828310000D
:1005900070471430086000207047000070B50400F8
:1005A0000D00160000280FD000290BD001203422A6
:1005B0000649794400F0DAF8236832002900200067
:1005C000984770BD0020F2E70020F0E732310000CC
:1005D00070B504000D00160000280FD000290BD0C4
:1005E00001203D220649794400F0C0F863683200DA
:1005F00029002000984770BD0020F2E70020F0E7B6
:10060000FE300000F8B505000E001700002824D0C9
:10061000002924D0002A24D10020F1221249794453
:1006200000F0A4F82C000834200000F05CFC002846
:10063000F8D00025715D200000F04DFC200000F096
:1006400052FC0028FAD00135BD42F3D3200000F05F
:100650004FFC0028FAD02800F8BD0020DDE700207C
:10066000DBE70120D9E7C046DA300000F8B5CE4616
:10067000474680B5051E8846914620D0002920D0E7
:10068000002A20D10020862252001049794400F02F
:100690006DF800262C000834200000F02FFC002804
:1006A000F8D043469F19200000F019FC387001363D
:1006B0004E45EFD330000CBC90469946F8BD002063
:1006C000E1E70020DFE70120DDE7C0466C300000F5
:1006D00070B504000D00002817D0002913D00120A8
:1006E00034220B49794400F041F8200008302900F9
:1006F00000F0D6FB002805D1064B7B446360064B17
:100700007B44236070BD0020EAE70020E8E7C04694
:10071000143000006FFFFFFF01FFFFFF10B5040062
:10072000431E9841C0B253220449794400F01EF898
:100730002000083000F0C6FB002010BDCE2F0000C6
:1007400070B504000D0000280CD0002908D001204D
:1007500069220549794400F009F82C60002070BD39
:100760000020F5E70020F3E7A42F0000002800D1C7
:1007700000BE704782B003000A4A7A440A497944AD
:100780000968002906D0094A7A441068C318136022
:1007900002B07047064952580192064A7A440199BC
:1007A0001160F0E7AA3600000AF9FF1F00F9FF1FE9
:1007B00044000000ECF8FF1F03011B1A1A0164201B
:1007C0005043704710B5084B5A685A6000F0D8F88B
:1007D00000F02EFD022000F0B3F800F035FDFD2002
:1007E00000F0AEF810BDC04600400041224B5B78DF
:1007F000DB09FBD1204B5B78DB09FBD11E4B1B785F
:100800009B070AD500221C4B1A701B4B5B78DB0937
:10081000FBD1194B5B78DB09FBD10122164B1A7017
:10082000154B5B78DB09FBD1134B5B78DB09FBD104
:10083000114B00229A705A605A619A61802292028A
:10084000DA611A7802210A43D2B21A700A4B5B7835
:10085000DB09FBD1094B102280215A50BFF34F8F87
:10086000BFF36F8F0131FF315A501A60044B7B4444
:10087000186000207047C0460018004000E100E00A
:100880001EF8FF1F70B582B0284B1A69D9680A405C
:100890000192019A1A61264B7B441868431E9841C5
:1008A000C0B2D22223497944FFF760FF01256D428F
:1008B00030E00139CEB2B0420FD832185210D1B266
:1008C000FF231340DB001C4A7A449B5CA34203D005
:1008D000EFDA0131C8B2EEE718256B1C04D0174BD4
:1008E0007B441B68280098470122A240019B934348
:1008F0000193019801F0ACFD013844B2631C02D0B1
:1009000001260020D7E7094B1A69D9680A400192ED
:10091000019A1A61019B002B05D0019801F098FD06
:10092000013844B2EAE702B070BDC046001800408A
:10093000F4F7FF1F762E00004C2E0000ACF7FF1FCF
:10094000C30709D50B4B802252009A600A4A5A60AD
:10095000084B5B78DB09FBD1830709D5054B0222E5
:10096000FF329A60054A5A60024B5B78DB09FBD183
:100970007047C046000C0040000701000103010061
:10098000074B1A7A01210A43D2B21A725A7AD2B2AA
:100990005A729A7AD2B29A72DA7AD2B2DA7270470C
:1009A00000040040024B9C466044800AC0B270477D
:1009B00000F8FFBD10B5FFF7F5FF0200002000288A
:1009C00007D0094A094979440020FFF7CFFE0020EB
:1009D00010BD83001B189900054B7B44CB5C9A42E9
:1009E000F6D00130C0B2EAE73A020000BE2D0000A6
:1009F0005A2D000070B50400FFF7DCFFE369DB0748
:100A00001ED483001B189A00384B7B449B185A68ED
:100A10001C231A40E3699B07FCD123689B0709D577
:100A2000236802218B432360E3699B07FCD1E369C0
:100A30009B07FCD4012313432360E3699B07FCD18C
:100A4000E369DB07FCD483001B189A00284B7B4426
:100A50009B185B682360E3699B07FCD183001B182C
:100A60009A00244B7B449B189B686360E3695B0797
:100A7000FCD183001B189A001F4B7B449B185B68BA
:100A80009A040CD4C022D201134208D183001B184F
:100A90009A001A4B7B449B189B89A38116E0830024
:100AA0001B189A001649794489188A89A389D204A7
:100AB000D20C5B0B5B031343A3818B7B07221A4091
:100AC000A3895203DB04DB0C1343A3810D4B7B444E
:100AD00082001518A9000D005918C97BA1735B1974
:100AE0001A7C3023E254002070BDC0462A2D00003D
:100AF000E62C0000D02C0000BA2C0000A02C000036
:100B00008E2C0000662C000010B5FFF74BFF002371
:100B1000002B09D0E62292000A4979440020FFF711
:100B200025FE0120404210BD5A00D218D100064ACD
:100B30007A445218127D904202D00133DBB2E7E7CB
:100B400058B2F0E76A2C0000042C000070B50500D4
:100B50000C000800FFF7D8FFC0B2E369DB071ED422
:100B600043001B18DA002C4B7B449B189A691C230A
:100B70001A40E3699B07FCD123689B0709D52368CA
:100B800002218B432360E3699B07FCD1E3699B0748
:100B9000FCD4012313432360E3699B07FCD1E36981
:100BA000DB07FCD443001B18DA001C4B7B449B186A
:100BB0009B692360E3699B07FCD143001B18DA00A3
:100BC000174B7B449B18DB696360E3695B07FCD4CC
:100BD00042001218D100134B7B445B181A6AE26082
:100BE000DA7E03231A40AA81023B93429B415B4277
:100BF000626A0D490A409B0313436362E3695B0722
:100C0000FCD443001818C200084B7B449B18DB8CB3
:100C1000EB81002070BDC046CC2B0000882B00006B
:100C2000722B00005C2B0000FFBFFFFF2A2B00008F
:100C300070B5050004692368DB0E01261E40431EC3
:100C40009841C0B28F4A90497944FFF78FFD6B6895
:100C5000012B4DD063688D4A13406360E3695B07E5
:100C6000FCD42B885A054ED56A88D20704D56A88E9
:100C70008021C9000A436A805B00854A1A40E36903
:100C80005B07FCD4636A8021C9010B4013438022B7
:100C9000120213436362E3695B07FCD42E697D4A49
:100CA000337EDBB21800511E002A02D00A009B07D7
:100CB000F6D02368DB0E01221A40E3695B07FCD4FF
:100CC000638B9BB2C10700D48FE09A072FD5012216
:100CD00022766A88802149010A436A806A886E49BF
:100CE0000A406A80DB0700D4C6E005204042A2E04B
:100CF000002EAFD062688023DB0213436360E36998
:100D00005B07FCD4ADE75B00FF2213406A8801213A
:100D10000A401A43E3695B07FCD4636A8021C90176
:100D20000B4013436362E3695B07FCD4B6E75B07E0
:100D30001BD46B885B0534D52A8812125200062317
:100D40001A40E3695B07FCD4636A8021C9010B4048
:100D50001343F12213436362E3695B07FCD46B889E
:100D60004E4A13406B80002065E06B68002B04DD69
:100D70006B888022520113436B806B881BB2002B5F
:100D800006DB6B88444A13406B800220404252E0ED
:100D90006268C0239B0213436360E3695B07FCD472
:100DA000EFE76868002811D16B881BB2002B04DBC9
:100DB0006B88394A13406B803DE06268C0239B0218
:100DC00013436360E3695B07FCD4F1E7AB681A780F
:100DD0002823E254E3695B07FCD4AB680133AB60C2
:100DE0006B68013B6B60002025E0810747D569688F
:100DF00000293CD05B073AD401396960002901D150
:100E0000002A1BD0012917D06B68002B07D16B88F3
:100E10001BB2002B1BDB6B881F4A13406B80AA6838
:100E2000531CAB60E3695B07FCD42823E35C1370BD
:100E300002232376002070BD002AE5D0626880235B
:100E4000DB0213436360E3695B07FCD4DCE76368A0
:100E5000114A13406360E3695B07FCD46268C023F6
:100E60009B0213436360E3695B07FCD4D3E702236F
:100E7000237602204042DEE704204042DBE70020E8
:100E8000D9E7C046940500003C2B0000FFFFFBFFA4
:100E9000FE070000FFFF0000FFFEFFFFFFFBFFFF5C
:100EA00070B505000C00431E9841C0B2B42204493D
:100EB0007944FFF75BFC2C602000FFF79BFD70BDC1
:100EC000D42800000268136802210B431360D36921
:100ED0009B07FCD17047036889B219857047036886
:100EE000188DC0B270470368187E01231840704700
:100EF00003681B7E5B0801201840704703681B7E57
:100F00009B0801201840704770B504000D00431E77
:100F10009841C0B2054A06497944FFF727FC25618C
:100F200029002000FFF712FE70BDC0460705000033
:100F30006C28000070B504001A4D7D44431E984192
:100F4000C0B2194A2900FFF711FC24692000431E92
:100F50009841C0B2154A2900FFF708FC2368022215
:100F600013432360E3699B07FCD104201049E36924
:100F70005B07FCD4628B120903231340012B0BD0B7
:100F800001390029F3DC0138002807D010236383DE
:100F9000E3695B07FCD4E9E7002070BD062040420E
:100FA000FBE7C0464A28000024050000F4050000C5
:100FB000FFFF0000F8B505000E000469964F7F445E
:100FC000431E9841C0B2954A3900FFF7CFFB28690C
:100FD000431E9841C0B2B822D2003900FFF7C6FBC9
:100FE0003000431E9841C0B28D4A3900FFF7BEFB66
:100FF0006B88DB0500D50BE1728880235B009C4683
:101000001A4372802A00310089C989C26268634626
:1010100013436360E3695B07FCD42800FFF708FE15
:10102000002800D19DE06B887E4A13406B80F8BD9C
:1010300005204042A6E073881BB2002B04DB6B88BE
:10104000784A13406B80F2E76268C0239B02134327
:101050006360E3695B07FCD4F1E753071BD46B883B
:101060005B0534D52A881212520006231A40E36920
:101070005B07FCD4636A8021C9010B401343F12252
:1010800013436362E3695B07FCD46B88664A1340D1
:101090006B80002065E06B68002B04DD6B8880228C
:1010A000520113436B806B881BB2002B06DB6B88ED
:1010B0005C4A13406B800220404252E06268C023C9
:1010C0009B0213436360E3695B07FCD4EFE7686846
:1010D000002811D16B881BB2002B04DB6B88514AAE
:1010E00013406B803DE06268C0239B021343636042
:1010F000E3695B07FCD4F1E7AB681A782823E25474
:10110000E3695B07FCD4AB680133AB606B68013B00
:101110006B60002025E0BB0778D56B68002B6DD095
:1011200052076BD4013B6B60002B01D100294CD0DE
:10113000012B48D06B68002B07D16B881BB2002BAA
:101140004CDB6B88374A13406B80AA68531CAB603A
:10115000E3695B07FCD42823E35C13700223237646
:1011600000206B88DB0500D461E728692F4A037EE5
:10117000DBB21F00511E002A00D159E70A009B076D
:10118000F5D00020002800D055E72368DB0E0121B0
:101190001940E3695B07FCD4628B92B2FB07BAD5B6
:1011A000930700D459E7012323766B8880214901F6
:1011B0000B436B806B881B490B406B80D30722D598
:1011C00005204042CDE70029B4D062688023DB02CD
:1011D00013436360E3695B07FCD4ABE76368114AC0
:1011E00013406360E3695B07FCD46268C0239B0221
:1011F00013436360E3695B07FCD4A2E70223237611
:1012000002204042ADE704204042AAE70020A8E7C0
:10121000062040420BE7C046C6270000BF0500007D
:10122000C1050000FFFEFFFFFFFBFFFFFFFF000007
:10123000044B9A6902210A439A611A7F1D310A40C0
:101240001A777047000800408222D2011C4B5A8056
:1012500002221C4B9A841B4BDB68DB06FBD51A4A27
:10126000184BDA62194B1B689B0E3F2B20D09B0258
:10127000802292001343134A936206239384938C33
:101280005B0718D50F4BDA68D0231340D02BF9D168
:101290000C4A938C80210B439BB29384084B5B7860
:1012A000DB09FBD1074A936902218B4393617047A5
:1012B000FC23DB01DFE7034BDB68DB06FBD5E7E75D
:1012C000000C004000080040B905010424608000C3
:1012D000024B034A5A6005221A60704710E000E092
:1012E000FFFFFF0010B5FFF7F3FF10BD080E0BE086
:1012F0000B4B0C4858609860094B1B68DB03FBD50F
:10130000094B9C4661441000421ED2B20028EFD126
:10131000034B59609960024B1B68DB03FBD5704798
:1013200010E000E0FFFFFF00010000FF70B584B097
:10133000724C7C44FEF7EEFE0822C023DB059A6166
:10134000062000F087FD6E4D7D44280000F04CFD26
:1013500029001C316B48784400F078FF29002631C1
:101360006948784400F072FF29003F3167487844AB
:1013700000F06CFFA86C01F0B9FB02000B006448A0
:10138000784400F063FF686C01F0B0FB02000B00D2
:101390006048784400F05AFFE86C01F0A7FB0200B7
:1013A0000B005D48784400F051FF686D01F09EFB32
:1013B00002000B005948784400F048FF286D01F006
:1013C00095FB02000B005648784400F03FFFAD6DDE
:1013D0005449281C01F05EF8061C5349281C01F0F2
:1013E00059F801F03FF8C3B26420584301F02EFBD6
:1013F000011C281C01F06EF901F034F8C5B2301C54
:1014000001F074FB02000B0000954848784400F09E
:101410001DFF13E00021072000F07EFE00210620C2
:1014200000F07AFE0021052000F076FE0121002068
:1014300000F072FE1021012000F06EFE3C4BE358DC
:10144000039318780528F9D800F062FFE4030C2C08
:1014500034490121072000F055FE0021062000F04C
:1014600051FEEBE7012000F097FE002810D001218B
:10147000052000F047FE002000F08EFE2D4BE358C3
:101480001860002809D10121063000F03BFED5E7A5
:101490000021052000F036FEEDE70021062000F0D7
:1014A00031FECBE7052000F089FEFA20400000F075
:1014B000C9FEC3E70121002000F08CFE012000F0EE
:1014C000A1FE1D4BE35803931900002000F0ACFE71
:1014D000039B1B78002BB1D000F09EFEAEE70120ED
:1014E00000F050FEFA256D00280000F0ABFE002051
:1014F00000F048FE280000F0A5FE9FE7F22A000059
:1015000048EDFF1F4A240000522400005A24000026
:101510005C2400006A24000078240000822400007B
:101520008C2400006F12833A0AD7233C6424000005
:1015300028000000180000001C00000030B585B035
:1015400005000C00094B7B44094A9B58019303A9F1
:101550001800FFF7F5F80198FFF7E0F8A2B22900AC
:101560000398FFF71BF805B030BDC046DE28000029
:101570003000000070B584B004000D0016000D4B63
:101580007B440D4A9B58019303A91800FFF701F80B
:101590000198FEF7F1FF21B2802212010198FEF7B7
:1015A000EFFF320029000398FFF712F8002004B083
:1015B00070BDC046A42800004800000070B584B08B
:1015C00004000D0016000D4B7B440D4A9B580193FF
:1015D00003A91800FEF7DDFF0198FEF7CDFF21B249
:1015E000802212010198FEF7CBFF320029000398F8
:1015F000FEF7D4FF002004B070BDC0465C28000098
:101600004800000080225203C023DB05DA617047E6
:1016100080229204C023DB05DA617047F8B500AF81
:101620000D005E1C1C000834E408E4006946091B38
:101630008D460D70012404E01519013D2D780D55DE
:101640000134B442F8DB84685A1C5C23C05CA047B8
:10165000002801D1BD46F8BD0120FBE770B582B07E
:10166000040016001D006B46D97107335C22805CB4
:101670005B3A1900A3689847002802D0012002B005
:1016800070BDE368AAB25C21605C31009847002815
:10169000F5D00120F3E7000010B543690148784414
:1016A000984710BDFA21000010B5041E42D04369CE
:1016B000002B41D08269002A15D00269002A17D078
:1016C0002368002B18D06268002A1BD0E268002A29
:1016D0001ED0A268002A21D09847002824D10122D8
:1016E0005D23E25427E0154878449847032022E020
:1016F000134878449847E3E7636912487844984769
:10170000032018E06369104878449847032012E0EA
:1017100063690E487844984703200CE063690C48DD
:1017200078449847032006E063690A48784498475C
:10173000012000E0022010BD0320FCE7CC210000C6
:10174000DE210000E8210000002200001422000039
:10175000242200003822000000280BD05D23C35C47
:10176000012B01D003207047202319435C23C1546F
:101770000020F8E70220F6E7F0B583B004000F0080
:10178000160000282DD05D23C55C012D02D003205A
:1017900003B0F0BD5C3B6A4607320021FFF75EFFF5
:1017A000002817D10121B9406B46DA1D13788B430D
:1017B0005BB2BE401E431670012300212000FFF7DC
:1017C0002DFF0028E4D0084979442000FFF764FF8A
:1017D0002800DDE7054979442000FFF75DFF280078
:1017E000D6E70220D4E7C046F4210000E62100003D
:1017F000F0B583B004000F00160000282DD05D2343
:10180000C55C012D02D0032003B0F0BD5C3B6A46ED
:1018100007320A21FFF722FF002817D10121B94022
:101820006B46DA1D13788B435BB2BE401E431670C5
:1018300001230A212000FFF7F1FE0028E4D0084927
:1018400079442000FFF728FF2800DDE705497944A7
:101850002000FFF721FF2800D6E70220D4E7C0468A
:10186000C8210000A621000030B583B0041E21D09D
:101870005D23C55C012D02D0032003B030BD0129DA
:1018800014D0002902D100226B46DA7101236A4686
:1018900007320A212000FFF7C1FE0028EDD00649DB
:1018A00079442000FFF7F8FE2800E6E7FF226B46A8
:1018B000DA71EBE70220E0E774210000F0B583B0B5
:1018C00004000D00160000281FD05D23C75C012F07
:1018D00002D0032003B0F0BD5C3B6A460732092109
:1018E000FFF7BCFE002809D1094B7B445A5D6B46CB
:1018F00007331B7813402B413370EBE705497944DC
:101900002000FFF7C9FE3800E4E70220E2E7C04606
:10191000A61F0000F6200000F0B583B004000F0001
:10192000160000282DD05D23C55C012D02D00320B8
:1019300003B0F0BD5C3B6A4607320621FFF78EFE1E
:10194000002817D10121B9406B46DA1D13788B436B
:101950005BB2BE401E431670012306212000FFF734
:101960005DFE0028E4D0084979442000FFF794FE8A
:101970002800DDE7054979442000FFF78DFE2800A7
:10198000D6E70220D4E7C046D4200000AE200000F5
:10199000F0B583B004000F00160000282DD05D23A1
:1019A000C55C012D02D0032003B0F0BD5C3B6A464C
:1019B00007320121FFF752FE002817D10121B9405B
:1019C0006B46DA1D13788B435BB2BE401E43167024
:1019D000012301212000FFF721FE0028E4D008495F
:1019E00079442000FFF758FE2800DDE705497944D7
:1019F0002000FFF751FE2800D6E70220D4E7C046BA
:101A00009420000072200000F0B583B004000F00A5
:101A1000160000282DD05D23C55C012D02D00320C7
:101A200003B0F0BD5C3B6A4607320221FFF716FEA9
:101A3000002817D10121B9406B46DA1D13788B437A
:101A40005BB2BE401E431670012302212000FFF747
:101A5000E5FD0028E4D0084979442000FFF71CFE8A
:101A60002800DDE7054979442000FFF715FE28002E
:101A7000D6E70220D4E7C046582000003A200000F4
:101A8000F0B583B004000D00160000281FD05D23C0
:101A9000C75C012F02D0032003B0F0BD5C3B6A4657
:101AA00007320721FFF7DAFD002809D1094B7B44F3
:101AB0005A5D6B4607331B7813402B413370EBE7BD
:101AC000054979442000FFF7E7FD3800E4E70220EC
:101AD000E2E7C046E21D00000220000070B582B0BF
:101AE000041E1CD05D23C55C012D02D0032002B072
:101AF00070BD5C3B6A46D61D32000721FFF7AEFD84
:101B00000123320008212000FFF7A8FD0028EED0B5
:101B1000044979442000FFF7BFFD2800E7E70220D1
:101B2000E5E7C046CE1F000070B582B004000E008D
:101B300000282BD05D23C55C012D02D0032002B00C
:101B400070BD5C3B6A4607320521FFF787FD002820
:101B500015D16B46DA1D137802218B4376001E43A4
:101B60001670012303312000FFF758FD0028E6D04E
:101B7000074979442000FFF78FFD2800DFE705497A
:101B800079442000FFF788FD2800D8E70220D6E737
:101B9000961F0000741F000070B582B004000E0094
:101BA00000282BD05D23C55C012D02D0032002B09C
:101BB00070BD5C3B6A4607320521FFF74FFD0028E8
:101BC00015D16B46DA1D137804218B43B6001E43F2
:101BD0001670012301312000FFF720FD0028E6D018
:101BE000074979442000FFF757FD2800DFE7054942
:101BF00079442000FFF750FD2800D8E70220D6E7FF
:101C0000621F0000041F0000F0B583B004000F0045
:101C1000160000282DD05D23C55C012D02D00320C5
:101C200003B0F0BD5C3B6A4607320421FFF716FDA6
:101C3000002817D10121B9406B46DA1D13788B4378
:101C40005BB2BE401E431670012304212000FFF743
:101C5000E5FC0028E4D0084979442000FFF71CFD8A
:101C60002800DDE7054979442000FFF715FD28002D
:101C7000D6E70220D4E7C046341F0000FE1E000055
:101C8000F0B583B004000F00160000282DD05D23AE
:101C9000C55C012D02D0032003B0F0BD5C3B6A4659
:101CA00007320321FFF7DAFC002817D10121B940E0
:101CB0006B46DA1D13788B435BB2BE401E43167031
:101CC000012303212000FFF7A9FC0028E4D00849E4
:101CD00079442000FFF7E0FC2800DDE7054979445E
:101CE0002000FFF7D9FC2800D6E70220D4E7C04641
:101CF000F81E0000CA1E000070B582B005004B42FD
:101D00005941CCB200282CD05D23C65C012E02D0F4
:101D1000032002B070BD5C3B6A4607320521FFF725
:101D20009DFC002816D16B46DA1D117810239943CB
:101D30000B00210119431170012305212800FFF731
:101D40006DFC0028E5D0084979442800FFF7A4FC81
:101D50003000DEE7054979442800FFF79DFC30009C
:101D6000D7E70220D5E7C046C81E00009E1D000030
:101D700070B582B005004B425941CCB200282CD03E
:101D80005D23C65C012E02D0032002B070BD5C3B17
:101D90006A4607320521FFF761FC002816D16B4621
:101DA000DA1D1178202399430B006101194311704A
:101DB000012305212800FFF731FC0028E5D0084960
:101DC00079442800FFF768FC3000DEE705497944D4
:101DD0002800FFF761FC3000D7E70220D5E7C046B6
:101DE000781E0000261D000010B504001C300A22D9
:101DF0000F49794401F01FF820003F3005220D49BA
:101E0000794401F018F82000263019220A49794453
:101E100001F011F8094BA364094B6364094BE364B7
:101E2000094B6365094B2365094BA365002010BD71
:101E30008E1E00008C1E0000821E00000000B040BC
:101E40009A99993E000016430000FA42000020C211
:101E500000007A4470B584B00600974D7D44974CDD
:101E60007C4460220021200000F0D6FF944BEB5808
:101E700001932360934BEB5801936360924BEB58B3
:101E80000193E360914BEB580193A360904BEB58A7
:101E9000019323618F4BEB58019363618E4BEB5899
:101EA0000193A3612000FFF7FFFB02ABD87107335A
:101EB0001B78002B04D002ABD879C0B204B070BD3F
:101EC000310086487844FFF747FC02ABD8710733EE
:101ED0001B78002B03D002ABD879C0B2EEE700210B
:101EE0007F487844FFF720FE02ABD87107331B7898
:101EF000002B03D002ABD879C0B2DFE701217948CB
:101F00007844FFF749FE02ABD87107331B78002BEA
:101F100003D002ABD879C0B2D0E700217248784430
:101F2000FFF7EAFE02ABD87107331B78002B03D012
:101F300002ABD879C0B2C1E701216C487844FFF701
:101F400017FF02ABD87107331B78002B1DD100227D
:101F500002AB9A7102AB06331B78DBB2072B1CD89D
:101F600002AB9979C9B2012261487844FFF74CFE6F
:101F700002ABD87107331B78002B0AD102AB9A1D34
:101F80009B790133DBB21370E4E702ABD879C0B2BE
:101F900094E702ABD879C0B290E7002202AB9A7105
:101FA00002AB06331B78DBB2072B18D802AB99794A
:101FB000C9B200224F487844FFF7EAFC02ABD8715F
:101FC00007331B78002B06D102AB9A1D9B79013396
:101FD000DBB21370E4E702ABD879C0B26EE700223F
:101FE00002AB9A7102AB06331B78DBB2072B1AD80F
:101FF00002AB9979C9B200223F487844FFF78CFCC4
:10200000431E9841C0B202ABDA1DD871DB79002BB8
:1020100006D102AB9A1D9B790133DBB21370E1E765
:102020001078C0B24AE7002202AB9A7102AB0633C5
:102030001B78DBB2072B1AD802AB9979C9B2002200
:102040002E487844FFF7E0FC431E9841C0B202AB33
:10205000DA1DD871DB79002B06D102AB9A1D9B7972
:102060000133DBB21370E1E71078C0B226E700223B
:1020700002AB9A7102AB06331B78DBB2072B16D882
:102080001F487844FFF72AFD431E9841C0B202ABB7
:10209000DA1DD871DB79002B06D102AB9A1D9B7932
:1020A0000133DBB21370E5E71078C0B206E70A200F
:1020B00000F0C8F8002001E7C81F000090E2FF1FF1
:1020C0003C00000000000000140000003800000088
:1020D00024000000200000002C0000002CE2FF1F64
:1020E0000EE2FF1FF0E1FF1FD2E1FF1FB4E1FF1F6F
:1020F00086E1FF1F3AE1FF1FF6E0FF1FAEE0FF1F82
:102100006EE0FF1F10B50A00010002487844FFF797
:102110006FFB10BDE4DFFF1F10B50400102909D0CC
:102120000A00010014487844FFF726FB041E1BD068
:1021300001201FE00122010010487844FFF7ECFB6A
:10214000002801D0012015E0012221000C4878442C
:10215000FFF712FB002809D001200BE0002120002E
:10216000FFF7D0FF0134E4B2072CF7D9322000F09A
:1021700069F8002010BDC046CADFFF1FB6DFFF1F91
:10218000A2DFFF1F10B5010002487844FFF76CFB87
:1021900010BDC04666DFFF1F00B583B001006B466F
:1021A000DA1D05487844FFF789FB002802D16B4609
:1021B000D879C0B203B000BD4CDFFF1F10B50400DA
:1021C000FFF7EAFF41424141C9B22000FFF79AFF01
:1021D00010BD000070B504000D0001220100074889
:1021E0007844FFF711FC002800D070BD2A002100C0
:1021F00003487844FFF744FDF7E7C04610DFFF1FB0
:10220000FEDEFF1F10B50100002202487844FFF7F0
:10221000FBFB10BDE4DEFF1F10B502487844FFF75A
:102220005DFC10BDD4DEFF1F10B50A00010002489E
:102230007844FFF725FC10BDC0DEFF1F002070476B
:102240000020704710B5FEF7FBF810BD0FB4F0B5D5
:10225000C3B048AD80CD802676003200002102ACAC
:10226000200000F0D9FD00952B003A00310020003D
:1022700000F022FE200000F0D7FDC0B26B46D871FE
:10228000D979C9B22000FFF759F943B0F0BC08BCB6
:1022900004B0184710B5FFF76DF9002800D110BD44
:1022A00002487844FFF7D2FF0120F8E7061A000041
:1022B00010B5FFF783F9002800D110BD024878441B
:1022C000FFF7C4FF0120F8E7EA19000010B507285E
:1022D00013D800F027F8040B0A0A0A0A0A0A094868
:1022E0007844FFF7B3FFFFF793F910BD0648784431
:1022F000FFF7ACFFFFF786F9F7E704487844FFF7EC
:10230000A5FFF2E7FC1900000A1A0000181A0000E5
:1023100002B4714649084900095649008E4402BC7E
:102320007047C04602B4714649084900095C49003B
:102330008E4402BC7047C046002243088B4274D3CF
:1023400003098B425FD3030A8B4244D3030B8B42B6
:1023500028D3030C8B420DD3FF22090212BA030CBF
:102360008B4202D31212090265D0030B8B4219D3A0
:1023700000E0090AC30B8B4201D3CB03C01A5241C0
:10238000830B8B4201D38B03C01A5241430B8B4208
:1023900001D34B03C01A5241030B8B4201D30B03F1
:1023A000C01A5241C30A8B4201D3CB02C01A524118
:1023B000830A8B4201D38B02C01A5241430A8B42DB
:1023C00001D34B02C01A5241030A8B4201D30B02C4
:1023D000C01A5241CDD2C3098B4201D3CB01C01ADE
:1023E000524183098B4201D38B01C01A52414309E8
:1023F0008B4201D34B01C01A524103098B4201D3D6
:102400000B01C01A5241C3088B4201D3CB00C01A42
:10241000524183088B4201D38B00C01A52414308BA
:102420008B4201D34B00C01A5241411A00D20146DF
:10243000524110467047FFE701B5002000F006F852
:1024400002BDC0460029F7D076E770477047C04606
:1024500010B50023002802D000F0F2FB431C180046
:1024600010BDC0469E2110B5C905041C00F0C0FB7C
:10247000002803D1201C00F0C9FA10BD9E21201CA9
:10248000C90500F027F900F0C1FA80231B069C461D
:102490006044F2E7F8B557464E464546DE46E0B59D
:1024A0004702460088467F0A360EC40F002E47D0EA
:1024B000FF2E24D0FB008027FF041F4300239946F2
:1024C0009A467F3E43465D025800DB0F6D0A000EC0
:1024D000984643D0FF283BD0EB0080250022ED0436
:1024E0001D437F383618731C41469B464B4661405E
:1024F00013430F2B64D875489B00C3589F46002F89
:1025000042D108239946063BFF269A46DAE7414620
:10251000022A28D0032A00D1CEE0012A00D0ACE064
:10252000114000200022CCB24002D205400AE4074C
:10253000104320433CBC90469946A246AB46F8BDAA
:10254000002F15D104239946033B00269A46B9E78C
:10255000FF200222002DC5D00322C3E7002D19D190
:1025600000200122BEE70124FF220C400020DBE70F
:10257000380000F047FB7626431F9F400023764239
:10258000361A99469A469DE70C239946093BFF2641
:102590009A4697E7280000F035FB431F9D407623BD
:1025A0005B42181A00229DE780200024C003FF220E
:1025B000BAE73D005246ABE73D0021005246A7E78F
:1025C0003B0C9C462A04120C2B0C140060466546FA
:1025D0003F043F0C7C4342435D437B43270C9B18E5
:1025E000FF18BA4203D980235B029C466544240449
:1025F0003A04240C121993015C1EA3413F0C920E65
:102600007D191A43AD0115432B0104D501235E4604
:102610006A081D40154332007F32002A25DD6B0712
:1026200004D00F232B40042B00D004352B0103D5FD
:102630003200274B80321D40FE2A94DC0124A80181
:10264000400AD2B20C406FE78020C003074207D097
:10265000054205D128434002400A4446FF2263E771
:1026600038434002400AFF225EE70124A31A1B2BD5
:1026700005DD0C400022002056E75E46CBE72A002D
:102680002020DA40C31A9D402B005D1EAB4113434E
:102690005A0704D00F221A40042A00D004335A01EA
:1026A00004D5012401220C4000203DE701249B01B8
:1026B000580A0C40002237E780200124C003284339
:1026C0004002400A0C40FF222EE7C046343D000085
:1026D000FFFFFFF7F0B54F46D64646464400C0B56B
:1026E000C20F47024802400A844666467B0A4800F9
:1026F000C90F9A46240E1500DB00000E8946F6002D
:10270000FF2800D18FE001214F464F403900914210
:1027100066D0221A002A00DC9DE000283DD1002E60
:1027200000D18BE0511E002900D0B5E001249B1B95
:102730005A0144D59B019F09380000F063FA05381F
:102740008740844200DD96E0041B3A0020200134DB
:10275000E240041BA7403B005F1EBB410024134323
:102760005A0704D00F221A40042A00D004335A0119
:1027700027D50134FF2C00D179E001229B015B0AAF
:10278000E4B22A405B02E405580AD2072043104312
:102790001CBC90469946A246F0BDFF2CE0D080219B
:1027A000C9040E431B2A7BDC31002020D140821A51
:1027B0009640721E96410E439B1B5A01BAD45A078B
:1027C000D0D10122DF082A40FF2C33D1002F00D1C5
:1027D000A8E08023DB033B435B025B0AFF24D1E7D5
:1027E000211A00294CDD00282AD0FF2CB8D08020E7
:1027F000C00406431B2900DDAFE030002027C8409D
:10280000791A8E40711E8E4106439B195901D6D507
:102810000134FF2C00D185E001227A491A405B087F
:102820000B4013439CE7002E00D070E76BE73B1E84
:10283000C5D100227B025B0AE4B2A3E714008FE754
:10284000002E4DD0481E002857D19B1901245A0153
:10285000B5D50224E0E7002A25D1621CD2B2012AB4
:1028600072DD9F1B7A0135D5F71A0D0064E701224E
:1028700000232A4086E73B00634A241A13406FE78F
:1028800000296CD1611CC8B201284EDDFF2949D056
:102890009B195B080C0063E7FF2A41D00A0081E71F
:1028A00001269B1B89E7002C1CD0FF2821D0802407
:1028B000E404524223431B2A00DD96E01C0020253D
:1028C000D440AA1A93405A1E93412343F31A04009A
:1028D0000D002DE7002F00D02EE700220024A9E7ED
:1028E0000C003DE7002B58D0D243002AEED0FF2841
:1028F000E1D13300FF240D0032E7FF2910D00100A1
:1029000078E7002B6ED0FF24002E00D128E780222C
:102910005146D203114203D06146114200D1330027
:10292000FF241DE7FF2400232CE7002CE9D1002B16
:1029300063D0002E00D113E79B195A0100D43EE763
:10294000314A0C0013400BE7002C1ED1002B2FD175
:10295000002E4FD033000D0002E7012655E7002C72
:102960001FD1002B43D0C94300290BD0FF2839D0F9
:102970001B2944DC1C002027CC40791A8B40591EAF
:102980008B4123439B19040040E7002B1AD1002EF2
:1029900024D180270022FF031BE7330004000D0031
:1029A000DEE6FF281ED08024E40449422343DFE70B
:1029B000002E00D1D4E69F1B7A0100D437E7F31A2A
:1029C0000D00CDE6FF24002E00D1C9E6802250463E
:1029D000D2031042A4D060461042A1D133000D00B2
:1029E000FF24BDE63300FF24BAE601236EE733007F
:1029F0000400B5E6002700221CE73300B0E60123FF
:102A0000C0E7C046FFFFFF7DFFFFFFFB4102430021
:102A1000C20F490A1B0E00207E2B0DDD9D2B0CDC06
:102A2000802000040143952B0ADC9620C31AD9406C
:102A30004842002A00D108007047034BD018FBE73A
:102A4000963B9940F4E7C046FFFFFF7F70B5002832
:102A500030D0C317C4185C40C50F200000F0D2F876
:102A60009E231B1A962B0DDC9622D21A94402A0024
:102A70006402640ADBB26402DB05600AD207184311
:102A8000104370BD992B19DC9922D21A002A29DD36
:102A900094402200144C1440510704D00F210A40E6
:102AA000042A00D00434620113D4A401640ADBB206
:102AB0002A00E0E7002200230024DCE705222100B1
:102AC000121AD140B922D21A9440621E94410C438A
:102AD000DAE7054B2A001C409F23A4011B1A640A55
:102AE000DBB2C8E72200D5E7FFFFFFFB4100090E7C
:102AF0004B1C70B5DBB24602750AC40F012B14DD06
:102B0000E0239B006D07360BCB1800210A0D28002F
:102B100012051C4D32435B052A405B0813435B00E2
:102B2000E4075B082343190070BD002914D1002D70
:102B30001ED0280000F066F80A281CDC0B232A00AF
:102B40001B1ADA40030015339D400F4B12031B1A6A
:102B50005B05160B5B0DD8E7002D06D0320B8026E7
:102B600036036D071643094BCFE7084B0026CCE729
:102B700000230026C9E703002A000B3B9A400025EA
:102B8000E3E7C046FFFF0F8089030000FF07000056
:102B90008446081C6146FFE71FB500F0D7F80028FF
:102BA00001D40021C8421FBD10B500F069F84042B1
:102BB000013010BD10B500F0C9F8002801DB00207D
:102BC00010BD012010BDC04610B500F0BFF80028B0
:102BD00001DD002010BD012010BDC04610B500F081
:102BE00075F8002801DC002010BD012010BDC04692
:102BF00010B500F06BF8002801DA002010BD0120AC
:102C000010BDC0461C2101231B04984201D3000CB7
:102C100010391B0A984201D3000A08391B0998424F
:102C200001D30009043902A2105C40187047C04665
:102C30000403020201010101000000000000000085
:102C4000414208401C2101231B04984201D3000C7F
:102C500010391B0A984201D3000A08391B0998420F
:102C600001D30009043902A2105C401A7047C04623
:102C70001B1C1D1D1E1E1E1E1F1F1F1F1F1F1F1F73
:102C800070B5420045024E024C00C30F6D0A120E91
:102C9000760A240EC90F0120FF2A06D0FF2C03D08C
:102CA000A24201D1B54206D070BD002DFCD1FF2C4F
:102CB000FAD1002EF8D18B4206D00120002AF3D1A0
:102CC0002800451EA841EFE70020EDE7F0B54200DF
:102CD00045024C02C30F48006D0A120E640A000E32
:102CE000C90FFF2A1ED0FF2821D0002A0AD16E4228
:102CF0006E41F6B200280FD1002C0DD10020002D1E
:102D000009D005E0002801D1002C01D08B4211D060
:102D1000012158420843F0BD002EF7D001200139AF
:102D20000843F8E7002DDED002204042F3E7002CF4
:102D3000DBD0F9E78242EBDC04DBA542E8D80020D7
:102D4000A542E8D20121581E0843E4E7F0B542004D
:102D50004D024C004602760A120EC30F6D0A240E75
:102D6000C90FFF2A16D0FF2C18D0002A0AD17042B2
:102D70007041C0B2002C15D0002805D001200139C7
:102D80000843F0BD002C13D0994214D001205B42BF
:102D90001843F6E70220002EF3D1E4E70220002DCD
:102DA000EFD1E2E7002DE7D10020002EE9D0EDE7DA
:102DB000002DE9D1EAE7A24206DCDFDBAE4203D810
:102DC0000020AE42DAD3DCE7012049420843D8E7CD
:102DD00070B500260C4D0D4C641BA410A64209D101
:102DE000002601F011F80A4D0A4C641BA410A642FB
:102DF00005D170BDB300EB5898470136EEE7B3003C
:102E0000EB5898470136F2E7143E0000143E0000EC
:102E1000143E0000183E000003008218934200D1C7
:102E2000704719700133F9E70023C25C0133002AAF
:102E3000FBD1581E704770B50400002A00D170BD48
:102E40000D78561E631C25700131002D05D1A41884
:102E50009C42F4D01D700133FAE71C003200ECE70D
:102E600030B514009BB005001A00002C05DA8B2346
:102E70000360012040421BB030BD822368469B00A6
:102E800083810023009104919C4200D0631E029331
:102E90000593012369465B42CB8128001E9B00F00D
:102EA000D7F8431C01DA8B232B60002CE3D00023DE
:102EB000009A1370DFE7000007B5009313000A00C3
:102EC000010002480068FFF7CBFF0EBD00000020A4
:102ED000032370B5CD1C9D43083506000C2D1ED272
:102EE0000C25A9421DD8300000F076FB254A146855
:102EF0002100002919D1244C2368002B03D1300074
:102F000000F032FB20602900300000F02DFB431C54
:102F10002CD10C233000336000F05FFB03E0002D68
:102F2000DFDA0C233360002070BD0B685B1B1AD402
:102F30000B2B03D90B60CC18256003E08C420ED11B
:102F400063681360300000F048FB200007220B305C
:102F5000231D9043C31AE7D05A42E250E4E74B687E
:102F600063600C00EEE70C004968C2E70323C41C51
:102F70009C43A042E0D0211A300000F0F5FA431C37
:102F8000DAD1C6E75401002058010020F0B58E6860
:102F900085B007000C00039201939E4239D890231C
:102FA0008A89DB001A4234D00325096923685B1A39
:102FB0000293636902985D43EB0F5D19019B6D10ED
:102FC00001331B18AB4200D91D00530532D529002F
:102FD0003800FFF77DFF061E09D10C233B6040231C
:102FE0000120A28940421343A38105B0F0BD029A9B
:102FF000216900F0D6FAA389144A1A4080231343AA
:10300000A381029B2661F61826606561019EED1A78
:10301000A560019BB34200D21E00320003992068D4
:1030200000F0C8FAA36800209B1BA36023689E19C8
:103030002660DAE72A00380000F01AFB061EE0D10D
:103040002169380000F0CAFAC7E7C0467FFBFFFFDE
:10305000F0B59FB0029005938B890F0016001B06F8
:1030600011D50B69002B0ED14021FFF731FF3860DD
:103070003861002805D10C23029A013813601FB073
:10308000F0BD40237B61002306AD6B6120336B767E
:103090001033AB7634002378002B47D1A31B049365
:1030A0000DD0A31B320039000298FFF76FFF431CBD
:1030B00000D1B5E06A69049B944663446B61237850
:1030C000002B00D1ACE00122002352426A6002A929
:1030D0005432521801342B60EB60AB601370AB6557
:1030E000584E05222178300000F050FA621C00286A
:1030F00020D12968CB0604D5532302AE20309B197A
:1031000018700B0704D553232B2002AE9B1918709F
:1031100023782A2B16D000200A21099B2278303AE6
:10312000092A55D9002815D0099313E0252BB5D0CD
:103130000134B0E70123801B8340296814000B434E
:103140002B60CDE7059B181D1B680590002B39DB14
:103150000993140023782E2B0BD16378621C2A2B41
:103160003ED1059B02341A1D1B680592002B34DBEF
:103170000793354E21780322300000F007FA00282B
:1031800006D04023801B83402A68013413432B6000
:10319000217806222D48661C297600F0F7F90028D0
:1031A00046D02B4B002B2FD12968059B0722C90540
:1031B00028D59B189343083305936B69039A9B1892
:1031C0006B6167E75B42EB6002230B432B60C0E758
:1031D0004B4301349B180120A0E701235B42C7E762
:1031E000002314000A201A006B6021783039092965
:1031F00003D9002BBDD00792BBE7424301345218DC
:103200000123F2E70733D5E705AB00933A00114BF2
:103210002900029800E000BF0390039B0133CCD14A
:10322000BB890B985B0600D429E70120404226E7C2
:1032300005AB00933A00074B2900029800F07AF89A
:10324000EAE7C046D43D0000DA3D0000DE3D000064
:10325000000000008D2F0000F7B5150001938A686B
:103260000B6900900C00934200DA130022002B60DF
:1032700043321278002A01D001332B6023689B0669
:1032800002D52B6802332B60062723681F4027D006
:10329000230043331B785A1E93412268920630D490
:1032A0002200019943320098089EB047431C25D064
:1032B000062320682A68E16803400025042B03D117
:1032C0008D1AEB43DB171D40A3682269934201DD91
:1032D0009B1AED180027BD4220D1002010E00137D5
:1032E000E3682A689B1A9F42D2DA2200012319322E
:1032F00001990098089EB047431CF0D1012040423C
:10330000FEBD3020E1184331087021005A1C4531C0
:103310000978A218433202331170C1E72200012359
:103320001A3201990098089EB047431CE6D0013735
:10333000D1E70000F0B58BB006920A004332079344
:10334000059004920A7E0C00109B6E2A00D18FE03B
:1033500017D8632A2CD008D8002A00D199E0582A1F
:1033600054D026004236327029E0642A01D0692AFE
:10337000F7D121681A68080623D5111D1960156850
:1033800025E0732A00D188E008D86F2A29D0702A56
:10339000E7D1202209680A43226003E0752A20D081
:1033A000782ADED122007821453211706C4A30E053
:1033B0000E001A684236111D19601368337001231C
:1033C00079E04906D9D5111D19600023D55E002D7D
:1033D00003DA2D23049A6D421370624B0A2703937C
:1033E0002FE020681968050603D5081D18600D68D0
:1033F00005E04006F9D50D68081D1860ADB2594BBF
:10340000082703936F2A18D00A2716E045310A705F
:10341000544A03921A682168101D1860156808063E
:1034200022D5CB0702D52023194321601027002D78
:1034300003D1202322689A432260230000224333D1
:103440001A706368A360002B5CDB0422216891433F
:103450002160002D58D1049E002B64D02600039BD0
:1034600042361B7833705EE04806DAD5ADB2D8E755
:1034700009681A68080605D5111D19601368626984
:103480001A6006E04906F7D5111D19601368A28A73
:103490001A800023049E236154E01A68111D1960EC
:1034A000166800216268300000F070F8002801D032
:1034B000801B6060636823610023049A137041E0FD
:1034C0002369320006990598079DA847431C43D0FD
:1034D000236800259B070FD4099BE06898423DDADA
:1034E00018003BE022000123193206990598079E37
:1034F000B047431C30D00135E368099A9B1A9D42BE
:10350000F0DBE9E7002DA9D0049E28003900FEF782
:1035100099FF039B013E5B5C280033703900FEF786
:103520000BFF051EF1D1082F09D12368DB0706D553
:1035300063682269934202DC3023013E3370049BAE
:103540009B1B2361079B09AA00932100069B0598FA
:10355000FFF782FE431CB3D1012040420BB0F0BD07
:10356000F63D0000E53D0000002370B5064C050067
:1035700008002360FDF7FEF8431C03D12368002BED
:1035800000D02B6070BDC04694010020C9B28218E3
:10359000904201D10020704703788B42FBD001306C
:1035A000F6E7002310B59A4200D110BDCC5CC4549C
:1035B0000133F8E710B5884202D98B18984208D336
:1035C00000239A4207D0CC5CC4540133F9E78B5CEA
:1035D0008354013AFBD210BD7047704770B50500A7
:1035E000002910D00C1F2368002B00DAE4182800F3
:1035F000FFF7F2FF1D4A1368002B05D163601460CA
:103600002800FFF7EAFF70BDA34209D921686018BE
:103610008342F3D118685B6841182160EEE713001C
:103620005A68002A01D0A242F9D919685818A04254
:103630000BD120680918581819608242E0D110682F
:103640005268411819605A60DAE7A04202D90C2387
:103650002B60D5E721686018824203D11068526858
:103660004118216062605C60CAE7C04654010020D6
:10367000F8B507000D001600002905D11100FFF76D
:1036800027FC04002000F8BD002A03D1FFF7A6FFA5
:103690003400F7E700F012F82C008642F2D931002E
:1036A0003800FFF715FC041EECD029003200FFF7AC
:1036B00078FF29003800FFF791FFE3E70B1F1B6835
:1036C000181F002B01DA0B58C01870472E2E2F68D8
:1036D000616C2F7372632F68616C5F6932635F6D19
:1036E0005F73796E632E63002E2E2F68616C2F73CB
:1036F00072632F68616C5F696F2E63002E2E2F68D6
:10370000616C2F7372632F68616C5F757361727483
:103710005F73796E632E63000C00000018000000D8
:103720002E2E2F68706C2F6569632F68706C5F6533
:1037300069632E63000000000500000004001040D3
:10374000000003002BF60000000000000100000054
:103750001400200000010000E5E600000000D70092
:103760000080DC02000000000000000000000000FB
:103770000000000000000000000000000000000049
:1037800000000000000000002E2E2F68706C2F73C8
:103790006572636F6D2F68706C5F736572636F6DB8
:1037A0002E63000043686970206E616D65203A09E0
:1037B00025730A0D000000004D616E75666163742B
:1037C000757265723A200925730A0D00496E746599
:1037D00072666163653A200925730A0D00000000D6
:1037E000537570706C7920766F6C74616765206DAD
:1037F0006178203A200925302E3266560A0D0000E5
:10380000537570706C7920766F6C74616765206D8C
:10381000696E3A200925302E3266560A0D000000E6
:103820004D6178696D756D2063757272656E743A5D
:10383000200925302E31666D410A0D0054656D70EA
:1038400065726174757265204D61783A2009252E84
:103850003166430A0D00000054656D706572617435
:10386000757265204D696E3A2009252E3166430A2E
:103870000D00000044726976657220766572736986
:103880006F6E3A200956252E31662E252E32640A97
:103890000D00000001020408102040804D4350320A
:1038A000333030383A206661696C656420746F206B
:1038B00025732E0D0A0000006D63703233303038EE
:1038C0003A20726563656976655F63616C6C6261FD
:1038D000636B0A006D637032333030383A206465B0
:1038E0006C61795F6D730A006D637032333030380C
:1038F0003A2069326320696E697469616C697A651E
:10390000206973206E756C6C0A0000006D63703264
:10391000333030383A206932635F6465696E7420F1
:103920006973206E756C6C0A000000006D63703264
:10393000333030383A206932635F726561642069E0
:1039400073206E756C6C0A006D63703233303038E2
:103950003A206932635F7772697465206973206EFB
:10396000756C6C0A000000006D63703233303038C3
:103970003A2069326320696E697469616C697A659D
:10398000206661696C65640A00000000693263208A
:103990006465696E6974206661696C656400000025
:1039A0006661696C656420746F2065786563757401
:1039B000652069727120726F7574696E6500000010
:1039C0007365742070696E206D6F6465000000007F
:1039D000726561642070696E206D6F646520726528
:1039E000676973746572000073657420706F727418
:1039F000206D6F646500000072656164206C617405
:103A000063682072656769737465720077726974A0
:103A1000652070696E000000777269746520616CC2
:103A20006C2070696E730000726561642070756C43
:103A30006C2D757020726567697374657200000083
:103A40007365742070696E2070756C6C2D757000D4
:103A500073657420706F72742070756C6C2D757046
:103A6000000000007265616420696E7075742070DA
:103A70006F6C6172697479007365742070696E206F
:103A8000696E70757420706F6C6172697479000072
:103A9000726561642070696E20706F6C6172697408
:103AA000790000007265616420696E7465727275D8
:103AB000707400007365742070696E20696E74659F
:103AC0007272757074000000726561642070696EB6
:103AD00020696E7465727275707420737461747588
:103AE000730000007265616420696E74657272759E
:103AF000707420666C61670072656164206578701F
:103B0000616E64657220726567000000696E74659D
:103B100072727570742070696E206F757470757430
:103B2000206C6576656C00007265616420696E7456
:103B3000657272757074206361707475726520733C
:103B4000746174757300000073657420696E746528
:103B500072727570742070696E206F7574707574F0
:103B6000206D6F64650000007265616420696E7489
:103B7000657272757074206F6E206368616E676520
:103B800020636F6E74726F6C2072656700000000B6
:103B900073657420696E7465727275707420636FDA
:103BA0006D70617265206D6F64650000726561649F
:103BB0002064656661756C7420636F6D70617265F9
:103BC0002076616C756520726567000073657420EE
:103BD00070696E2064656661756C7420636F6D70CA
:103BE0006172652076616C756500000072656164C4
:103BF0002070696E2064656661756C7420636F6DFA
:103C0000706172652076616C75652073746174757E
:103C10007300000073657420736C657720726174A3
:103C2000650000007265616420736C6577207261C5
:103C3000746520737461747573000000736574207B
:103C400073657175656E7469616C206F7065726102
:103C500074696F6E206D6F64650000007265616449
:103C60002073657175656E6369616C206F70657234
:103C70006174696F6E206D6F646520737461747513
:103C8000730000004D4350323330303800000000E4
:103C9000493243004D6963726F63686970205465EF
:103CA00063686E6F6C6F6779000000006932632093
:103CB0007772697465206661696C65642C2063683D
:103CC00065636B2074686520693263206164647287
:103CD000657373206F7220776972696E670A0000DE
:103CE0006D637032333030383A2047503020696E7F
:103CF000746572727570740A000000006D63703232
:103D0000333030383A2047503120696E7465727212
:103D10007570740A000000006D6370323330303803
:103D20003A66616C736520696E7465727275707441
:103D300020740A00C0250000102500001025000096
:103D40000E250000B2250000B2250000A8250000C5
:103D50000E250000B2250000A8250000B2250000B5
:103D60000E250000B8250000B8250000B825000089
:103D700048260000000000000000000000000000D5
:103D80000000000000000000000000000000000033
:103D90000000000000000000000000000000000023
:103DA0000000000000000000000000000000000013
:103DB0000000000000000000000000000000000003
:103DC00000000000000000000000000000000000F3
:103DD00000000000232D302B2000686C4C0065662D
:103DE000674546470030313233343536373839414C
:103DF0004243444546003031323334353637383962
:103E00006162636465660000F8B5C046F8BC08BC32
:103E10009E467047DD000000F8B5C046F8BC08BCFF
:083E20009E467047B50000004A
:103E28004122000000000000803E000064000020E5
:103E38000000002095220000880100208C0100204D
:103E48004D2200004522000090010020CD220000F4
:103E58005C01002098010020B12200003D220000F2
:0C3E680064000020982100206801002068
:0C3E740000000000000000000000000042
:103E80000400002000000000943D0000B43D00004C
:103E9000743D000000000000000000000000000071
:103EA0000000000000000000000000000000000012
:103EB0000000000000000000000000000000000002
:103EC00000000000000000000000000000000000F2
:103ED00000000000000000000000000000000000E2
:043EE00000000000DE
:00000001FF
